:020000040000FA
:100000000C9462000C948A000C948A000C948A0070
:100010000C948A000C948A000C948A000C948A0038
:100020000C948A000C948A000C948A000C948A0028
:100030000C948A000C948A000C948A000C948A0018
:100040000C9477040C948A000C9445040C941F04BF
:100050000C948A000C948A000C948A000C948A00F8
:100060000C948A000C948A000000000024002700F1
:100070002A0000000000250028002B0000000000DE
:1000800023002600290004040404040404040202DA
:100090000202020203030303030301020408102007
:1000A0004080010204081020010204081020000012
:1000B0000008000201000003040700000000000027
:1000C0000000C10411241FBECFEFD8E0DEBFCDBFBA
:1000D00022E0ACE8B1E001C01D92A038B207E1F720
:1000E00011E0A0E0B1E0ECEEFFE002C005900D925F
:1000F000AC38B107D9F710E0C2E6D0E004C02197D0
:10010000FE010E94EE07C136D107C9F70E94000523
:100110000C94F4070C940000EDE9F1E0A089B1899A
:1001200082E08C93A485B5851C92A685B7858FEC5B
:100130008C93108EA489B58986E08C93A289B389AB
:100140008C9180618C93A289B3898C9188608C9307
:10015000A289B3898C9180688C930288F389E02D01
:1001600080818F7D80830895AF92BF92CF92DF927E
:10017000EF92FF920F931F93CF93DF936C017B015C
:100180008B01040F151FEB015E01AE18BF08C017ED
:10019000D10759F06991D601ED91FC910190F08160
:1001A000E02DC6010995892B79F7C501DF91CF9123
:1001B0001F910F91FF90EF90DF90CF90BF90AF9085
:1001C0000895FC01538D448D252F30E0842F90E05D
:1001D000821B930B541710F0CF9608950197089542
:1001E000FC01918D828D981761F0A28DAE0FBF2F0B
:1001F000B11D5D968C91928D9F5F9F73928F90E061
:1002000008958FEF9FEF0895FC01918D828D9817CF
:1002100031F0828DE80FF11D858D90E008958FEF0C
:100220009FEF0895FC01918D228D892F90E0805CD5
:100230009F4F821B91098F73992708958DE991E053
:100240000E94120121E0892B09F420E0822F0895F9
:1002500080E090E0892B29F00E941E0181110C940E
:1002600000000895FC01A48DA80FB92FB11DA35A59
:10027000BF4F2C91848D90E001968F739927848FC6
:10028000A689B7892C93A089B1898C9183708064E9
:100290008C93938D848D981306C00288F389E02D8A
:1002A00080818F7D80830895EF92FF920F931F933B
:1002B000CF93DF93EC0181E0888F9B8D8C8D981319
:1002C0001AC0E889F989808185FF15C09FB7F89425
:1002D000EE89FF896083E889F98980818370806471
:1002E00080839FBF81E090E0DF91CF911F910F91BC
:1002F000FF90EF900895F62E0B8D10E00F5F1F4FCB
:100300000F731127E02E8C8D8E110CC00FB607FCD9
:10031000FACFE889F989808185FFF5CFCE010E9467
:100320003201F1CFEB8DEC0FFD2FF11DE35AFF4FA2
:10033000F0829FB7F8940B8FEA89FB8980818062F5
:10034000CFCFCF93DF93EC01888D8823B9F0AA89B2
:10035000BB89E889F9898C9185FD03C0808186FD80
:100360000DC00FB607FCF7CF8C9185FFF2CF8081CF
:1003700085FFEDCFCE010E943201E9CFDF91CF9111
:100380000895833081F028F4813099F08230A9F00B
:1003900008958730A9F08830C9F08430B1F4809195
:1003A00080008F7D03C0809180008F7780938000D4
:1003B000089584B58F7784BD089584B58F7DFBCF74
:1003C0008091B0008F778093B00008958091B00045
:1003D0008F7DF9CFCF93DF93282F30E0F901E255DD
:1003E000FF4F8491F901E656FF4FD491F901EA5786
:1003F000FF4FC491CC23A1F081110E94C101EC2FC9
:10040000F0E0EE0FFF1FE458FF4FA591B491EC917F
:10041000ED2381E090E009F480E0DF91CF91089531
:1004200080E090E0FACF1F93CF93DF93282F30E046
:10043000F901E255FF4F8491F901E656FF4FD4913F
:10044000F901EA57FF4FC491CC23A9F0162F81116F
:100450000E94C101EC2FF0E0EE0FFF1FEE58FF4F9E
:10046000A591B4918FB7F894EC91111108C0D09573
:10047000DE23DC938FBFDF91CF911F910895DE2B98
:10048000F8CFCF93DF9390E0FC01E656FF4F249125
:100490008A579F4FFC0184918823D1F090E0880F08
:1004A000991FFC01E859FF4FA591B491FC01EE584A
:1004B000FF4FC591D49161110EC09FB7F8948C91F4
:1004C000E22FE0958E238C932881E223E8839FBF5F
:1004D000DF91CF9108958FB7F894EC91E22BEC93D4
:1004E0008FBFF6CF1F93CF93DF93182FEB0161E0FF
:1004F0000E944102209739F460E0812FDF91CF9173
:100500001F910C941302E12FF0E0E255FF4FE491AC
:10051000E33011F148F4E130B9F0E23069F784B525
:10052000806284BDC8BD14C0E73001F1E83031F10C
:10053000E43011F780918000806280938000D09336
:100540008B00C0938A0004C084B5806884BDC7BD99
:10055000DF91CF911F9108958091800080688093F2
:100560008000D0938900C0938800F2CF8091B000C2
:1005700080688093B000C093B300EACF8091B00050
:1005800080628093B000C093B400E2CF3FB7F8948C
:100590008091910190919201A0919301B091940169
:1005A00026B5A89B05C02F3F19F00196A11DB11DCE
:1005B0003FBFBA2FA92F982F8827BC01CD01620F0A
:1005C000711D811D911D42E0660F771F881F991FC5
:1005D0004A95D1F708958F929F92AF92BF92CF9292
:1005E000DF92EF92FF924B015C010E94C6026B0109
:1005F0007C010E94C6026C197D098E099F09683E24
:10060000734081059105A8F321E0821A9108A108A1
:10061000B10888EEC80E83E0D81EE11CF11C8114DD
:100620009104A104B10429F7FF90EF90DF90CF90DF
:10063000BF90AF909F908F9008952FB7F8946091DE
:100640008D0170918E0180918F01909190012FBF4B
:100650000895FC0101900020E9F73197AF01481B94
:10066000590BBC018DE991E00C94B4008F929F92DC
:10067000AF92BF920F931F93CF93DF93CDB7DEB7A7
:10068000A1970FB6F894DEBF0FBECDBF19A24230BE
:1006900008F44AE08E010F5D1F4F842E912CB12C7F
:1006A000A12CA50194010E94CC07E62FB901CA0133
:1006B000EA30F4F4E05DD801EE938D01232B242B76
:1006C000252B79F790E080E0109719F0CD010E947A
:1006D0002903A1960FB6F894DEBF0FBECDBFDF9100
:1006E000CF911F910F91BF90AF909F908F900895E1
:1006F000E95CE1CF0C942903CF93DF930E94290397
:10070000EC0182E191E00E9429038C0F9D1FDF9193
:10071000CF910895CF93DF934AE061E070E080E0ED
:1007200090E00E943603EC0182E191E00E942903EF
:100730008C0F9D1FDF91CF91089564E370E08AE0F4
:100740000E94720270E060E089E00E94720285E11E
:1007500091E00E947A030E948A03109298011092FD
:1007600097010895CF93DF9370E060E08AE00E94E4
:10077000720269E370E089E00E94720284E291E013
:100780000E947A03C1E0D0E0D0939801C093970112
:100790000E948A03D0939601C0939501DF91CF9177
:1007A0000895EF92FF920F931F93CF93DF9300D0A2
:1007B00000D0CDB7DEB78DE991E00E94F0008DE961
:1007C00091E00E94F0008E010F5F1F4F78018A3385
:1007D00041F0F80181938F018DE991E00E94F000D2
:1007E000F6CFC7010E94A607182F8DE991E00E945D
:1007F000F0008053990B8230910520F4682F812FEF
:100800000E9413028DE991E00E94F0008A3011F0FD
:100810008D30C1F78DE991E00E9404018A3021F406
:100820008DE991E00E94F0000F900F900F900F90D3
:10083000DF91CF911F910F91FF90EF9008951F923C
:100840000F920FB60F9211242F933F934F935F9304
:100850006F937F938F939F93AF93BF93EF93FF9388
:100860008DE991E00E943201FF91EF91BF91AF912C
:100870009F918F917F916F915F914F913F912F91B8
:100880000F900FBE0F901F9018951F920F920FB6EA
:100890000F9211242F938F939F93EF93FF93E091E7
:1008A000AD01F091AE018081E091B301F091B4010E
:1008B00082FD1BC090818091B6018F5F8F73209164
:1008C000B701821741F0E091B601F0E0E356FE4F28
:1008D000958F8093B601FF91EF919F918F912F910A
:1008E0000F900FBE0F901F9018958081F4CF1F922C
:1008F0000F920FB60F9211242F933F938F939F93D4
:10090000AF93BF9380918D0190918E01A0918F0143
:10091000B091900130918C0123E0230F2D3758F5D1
:100920000196A11DB11D20938C0180938D019093A0
:100930008E01A0938F01B0939001809191019091CD
:100940009201A0919301B09194010196A11DB11D56
:100950008093910190939201A0939301B09394019D
:10096000BF91AF919F918F913F912F910F900FBEAB
:100970000F901F90189526E8230F0296A11DB11D18
:10098000D2CFEDE9F1E01382128288EE93E0A0E08D
:10099000B0E084839583A683B78384E091E091835C
:1009A000808385EC90E09587848784EC90E097873E
:1009B000868780EC90E0918B808B81EC90E0938B2C
:1009C000828B82EC90E0958B848B86EC90E0978B09
:1009D000868B118E128E138E148EEAE3F2E016824D
:1009E000178210861186128613861486158616863F
:1009F0001786108A118A128A138A148A158A089512
:100A0000789484B5826084BD84B5816084BD85B5E9
:100A1000826085BD85B5816085BD80916E008160F5
:100A200080936E001092810080918100826080939B
:100A3000810080918100816080938100809180009D
:100A40008160809380008091B10084608093B100C8
:100A50008091B00081608093B00080917A008460C2
:100A600080937A0080917A00826080937A008091EE
:100A70007A00816080937A0080917A008068809308
:100A80007A001092C10010927C0210927D021092A6
:100A90007E0210927F0210923C0210923D02109250
:100AA0003E0210923F020E941D036B017C012B014C
:100AB0003C0128EB420E2BE0521E611C711C0E946F
:100AC0001D036C157D058E059F0528F046165706FB
:100AD00068067906A0F768EE73E080E090E00E9477
:100AE000EB020E948C000E941D0360933C027093F5
:100AF0003D0280933E0290933F0284E391E00E9486
:100B00007A030E941D036B017C012B013C013AE03A
:100B1000430E511C611C711C0E941D036C157D0548
:100B20008E059F0528F04616570668067906A0F739
:100B300081E0809350020E941D0360933C027093F9
:100B40003D0280933E0290933F0285E491E00E9433
:100B50007A030E948C0061E082E00E94410261E021
:100B600083E00E94410261E084E00E94410261E072
:100B700085E00E94410261E089E00E94410261E05B
:100B80008AE00E94410260E086E00E94410260E04B
:100B900087E00E94410260E08BE00E94410260E039
:100BA0008CE00E94410260E088E00E94410260E027
:100BB00082E00E94130261E083E00E94130261E080
:100BC00084E00E94130260E085E00E94130261E06D
:100BD0008DE00E94410280E0282E80E0382E94EFC4
:100BE000492E55245394612C712C0E941D03672BB0
:100BF000682B692B09F4EBC00E941D030091990139
:100C000010919A0120919B0130919C01601771070E
:100C10008207930708F41AC10091990110919A0173
:100C200020919B0130919C016B017C01C01AD10A7B
:100C3000E20AF30A970186010A3F110521053105F1
:100C400008F4CDC06093990170939A0180939B0141
:100C500090939C01409248025092490260924A024D
:100C600070924B0210924C0210924D0210924E0262
:100C700010924F028091400290914102A091420255
:100C8000B09143028093440290934502A0934602A0
:100C9000B09347020E941D0360934002709341028B
:100CA00080934202909343028DE991E00E940401F7
:100CB000843611F40E94D1030E941D0360933C020C
:100CC00070933D0280933E0290933F020E941D0369
:100CD0006B017C018CE491E00E947A034AE061E0C0
:100CE00070E080E090E00E94360383E591E00E948E
:100CF0007A034AE0C701B6010E94360385E591E018
:100D00000E947A038091400290914102A091420298
:100D1000B0914302A7019601281B390B4A0B5B0BCC
:100D2000CA01B9014AE00E94360385E591E00E94BC
:100D30007A03609140027091410280914202909149
:100D400043020091440210914502209146023091E5
:100D50004702601B710B820B930B4AE00E94360323
:100D600087E591E00E947A030E941D034AE00E94F9
:100D7000360389E591E00E947C030E941D034B012C
:100D80005C017C016B0135E0C30ED11CE11CF11C40
:100D90000E941D03681579058A059B0528F0C61673
:100DA000D706E806F906A0F78DE991E00E94040154
:100DB000843611F40E94D1030E941D036093400207
:100DC00070934102809342029093430208C00E94B4
:100DD0001D03623071058105910508F00DCF86E095
:100DE0000E94EA01EC018CE00E94EA018C0187E09C
:100DF0000E94EA017C018BE00E94EA016C0188E01C
:100E00000E94EA01209759F50E949D038091970165
:100E100090919801019771F08091950190919601C0
:100E2000019741F489E891E00E947C0310929601B9
:100E3000109295012114310409F4D7CE0E941E01AD
:100E4000882309F4D2CE0E940000CFCE609399018E
:100E500070939A0180939B0190939C01DDCEE114E5
:100E6000F10429F0C114D10411F00097A1F587E035
:100E70000E94EA018C018BE00E94EA01EC0188E00B
:100E80000E94EA01009799F462E370E08AE00E9410
:100E9000720269E370E089E00E94720280E691E0EC
:100EA0000E947C031092980110929701AFCF011518
:100EB000110539F4219791F7019781F70E949D035D
:100EC000EDCF0130110551F7CD2B41F7019731F7E7
:100ED0000E94B203E3CF01151105A9F40E94B203E9
:100EE00068EC70E080E090E00E94EB0270E060E06F
:100EF0008AE00E94720270E060E089E00E94720263
:100F000081E791E0CDCFCA94CD2809F07FCFEA9454
:100F1000EF2809F07BCF0130110509F077CF219739
:100F200009F074CF019709F071CF69E370E089E0AF
:100F30000E94720270E060E08AE00E94720280E823
:100F400091E00E947A030E948A03ACCFFC018827BB
:100F50009927E89421912032E9F3293010F02E30BE
:100F6000C8F32B3241F02D3239F4689404C00E944A
:100F7000C407820F911D219120532A30C0F31EF423
:100F8000909581959F4F08957AE0979F902D879F28
:100F9000802D910D11240895A1E21A2EAA1BBB1BCE
:100FA000FD010DC0AA1FBB1FEE1FFF1FA217B30735
:100FB000E407F50720F0A21BB30BE40BF50B661F4B
:100FC000771F881F991F1A9469F76095709580950F
:100FD00090959B01AC01BD01CF010895EE0FFF1F5D
:100FE0000590F491E02D0994F894FFCF00000000E3
:100FF0005401B400E100A1011201F00004010D0A46
:10100000005475726E696E67204C6566743A2000F4
:101010005475726E696E672072696768743A200051
:10102000564D4450565F317C315F564D4450560A00
:1010300000564D4450525F00564D4450455F003AB3
:10104000323A007C005F564D44504500486561646B
:10105000696E672053747261696768740053746FB6
:1010600070706564206D6F76696E670055207475C9
:08107000726E3A2000520000EC
:107E0000112484B714BE81FFF0D085E080938100F7
:107E100082E08093C00088E18093C10086E0809377
:107E2000C20080E18093C4008EE0C9D0259A86E02C
:107E300020E33CEF91E0309385002093840096BBD3
:107E4000B09BFECF1D9AA8958150A9F7CC24DD24C4
:107E500088248394B5E0AB2EA1E19A2EF3E0BF2EE7
:107E6000A2D0813461F49FD0082FAFD0023811F036
:107E7000013811F484E001C083E08DD089C08234E0
:107E800011F484E103C0853419F485E0A6D080C0E4
:107E9000853579F488D0E82EFF2485D0082F10E0AE
:107EA000102F00270E291F29000F111F8ED06801E7
:107EB0006FC0863521F484E090D080E0DECF843638
:107EC00009F040C070D06FD0082F6DD080E0C81688
:107ED00080E7D80618F4F601B7BEE895C0E0D1E017
:107EE00062D089930C17E1F7F0E0CF16F0E7DF06D8
:107EF00018F0F601B7BEE89568D007B600FCFDCFD4
:107F0000A601A0E0B1E02C9130E011968C91119780
:107F100090E0982F8827822B932B1296FA010C0160
:107F200087BEE89511244E5F5F4FF1E0A038BF0790
:107F300051F7F601A7BEE89507B600FCFDCF97BE46
:107F4000E89526C08437B1F42ED02DD0F82E2BD052
:107F50003CD0F601EF2C8F010F5F1F4F84911BD097
:107F6000EA94F801C1F70894C11CD11CFA94CF0C13
:107F7000D11C0EC0853739F428D08EE10CD085E9AC
:107F80000AD08FE07ACF813511F488E018D01DD067
:107F900080E101D065CF982F8091C00085FFFCCF94
:107FA0009093C60008958091C00087FFFCCF809118
:107FB000C00084FD01C0A8958091C6000895E0E648
:107FC000F0E098E1908380830895EDDF803219F02E
:107FD00088E0F5DFFFCF84E1DECF1F93182FE3DFCA
:107FE0001150E9F7F2DF1F91089580E0E8DFEE27F6
:047FF000FF270994CA
:027FFE00040479
:00000001FF
