:020000040000FA
:100000000C9462000C948A000C948A000C948A0070
:100010000C948A000C948A000C948A000C948A0038
:100020000C948A000C948A000C948A000C948A0028
:100030000C948A000C948A000C948A000C948A0018
:100040000C94A6030C948A000C9474030C944E0335
:100050000C948A000C948A000C948A000C948A00F8
:100060000C948A000C948A000000000024002700F1
:100070002A0000000000250028002B0000000000DE
:1000800023002600290004040404040404040202DA
:100090000202020203030303030301020408102007
:1000A0004080010204081020010204081020000012
:1000B0000008000201000003040700000000000027
:1000C0000000F00311241FBECFEFD8E0DEBFCDBF8C
:1000D00022E0A2E8B1E001C01D92A837B207E1F723
:1000E00011E0A0E0B1E0EEE0FCE002C005900D926E
:1000F000A238B107D9F710E0C2E6D0E004C02197DA
:10010000FE010E94FF05C136D107C9F70E945204C3
:100110000C9405060C940000EBE8F1E0A089B1898D
:1001200082E08C93A485B5851C92A685B7858FEC5B
:100130008C93108EA489B58986E08C93A289B389AB
:100140008C9180618C93A289B3898C9188608C9307
:10015000A289B3898C9180688C930288F389E02D01
:1001600080818F7D80830895CF92DF92EF92FF92FE
:100170000F931F932FB7F894C0908701D0908801F8
:10018000E0908901F0908A012FBF6C0D7D1D8E1DBE
:100190009F1D4FB7F894009187011091880120911D
:1001A000890130918A014FBF0C151D052E053F05B1
:1001B00028F0601771078207930758F71F910F9176
:1001C000FF90EF90DF90CF900895AF92BF92CF92C3
:1001D000DF92EF92FF920F931F93CF93DF936C0107
:1001E0007B018B01040F151FEB015E01AE18BF08E8
:1001F000C017D10759F06991D601ED91FC9101909A
:10020000F081E02DC6010995892B79F7C501DF91B1
:10021000CF911F910F91FF90EF90DF90CF90BF9003
:10022000AF900895FC01538D448D252F30E0842F2D
:1002300090E0821B930B541710F0CF96089501970E
:100240000895FC01918D828D981761F0A28DAE0FFB
:10025000BF2FB11D5D968C91928D9F5F9F73928F82
:1002600090E008958FEF9FEF0895FC01918D828DAE
:10027000981731F0828DE80FF11D858D90E008957B
:100280008FEF9FEF0895FC01918D228D892F90E0D3
:10029000805C9F4F821B91098F73992708958BE88B
:1002A00091E00E94430121E0892B09F420E0822F94
:1002B000089580E090E0892B29F00E944F01811180
:1002C0000C9400000895FC01A48DA80FB92FB11D56
:1002D000A35ABF4F2C91848D90E001968F7399277C
:1002E000848FA689B7892C93A089B1898C9183705A
:1002F00080648C93938D848D981306C00288F38953
:10030000E02D80818F7D80830895EF92FF920F937F
:100310001F93CF93DF93EC0181E0888F9B8D8C8DB1
:1003200098131AC0E889F989808185FF15C09FB7A5
:10033000F894EE89FF896083E889F9898081837068
:10034000806480839FBF81E090E0DF91CF911F9117
:100350000F91FF90EF900895F62E0B8D10E00F5F38
:100360001F4F0F731127E02E8C8D8E110CC00FB60E
:1003700007FCFACFE889F989808185FFF5CFCE01A6
:100380000E946301F1CFEB8DEC0FFD2FF11DE35ABD
:10039000FF4FF0829FB7F8940B8FEA89FB89808129
:1003A0008062CFCFCF93DF93EC01888D8823B9F0A3
:1003B000AA89BB89E889F9898C9185FD03C0808170
:1003C00086FD0DC00FB607FCF7CF8C9185FFF2CFED
:1003D000808185FFEDCFCE010E946301E9CFDF91DF
:1003E000CF910895833081F028F4813099F08230E4
:1003F000A9F008958730A9F08830C9F08430B1F4AD
:10040000809180008F7D03C0809180008F778093E2
:100410008000089584B58F7784BD089584B58F7D5D
:10042000FBCF8091B0008F778093B00008958091CA
:10043000B0008F7DF9CFCF93DF93282F30E0F90103
:10044000E255FF4F8491F901E656FF4FD491F9012F
:10045000EA57FF4FC491CC23A1F081110E94F20111
:10046000EC2FF0E0EE0FFF1FE458FF4FA591B49181
:10047000EC91ED2381E090E009F480E0DF91CF91F1
:10048000089580E090E0FACF1F93CF93DF93282F59
:1004900030E0F901E255FF4F8491F901E656FF4F34
:1004A000D491F901EA57FF4FC491CC23A9F0162F3C
:1004B00081110E94F201EC2FF0E0EE0FFF1FEE58C9
:1004C000FF4FA591B4918FB7F894EC91111108C02A
:1004D000D095DE23DC938FBFDF91CF911F910895DC
:1004E000DE2BF8CFCF93DF9390E0FC01E656FF4F71
:1004F00024918A579F4FFC0184918823D1F090E08A
:10050000880F991FFC01E859FF4FA591B491FC0198
:10051000EE58FF4FC591D49161110EC09FB7F8946A
:100520008C91E22FE0958E238C932881E223E8833F
:100530009FBFDF91CF9108958FB7F894EC91E22B94
:10054000EC938FBFF6CF1F93CF93DF93182FEB0160
:1005500061E00E947202209739F460E0812FDF9100
:10056000CF911F910C944402E12FF0E0E255FF4F30
:10057000E491E33011F148F4E130B9F0E23069F789
:1005800084B5806284BDC8BD14C0E73001F1E83095
:1005900031F1E43011F78091800080628093800017
:1005A000D0938B00C0938A0004C084B5806884BD5A
:1005B000C7BDDF91CF911F91089580918000806821
:1005C00080938000D0938900C0938800F2CF8091FF
:1005D000B00080688093B000C093B300EACF8091F0
:1005E000B00080628093B000C093B400E2CF3FB708
:1005F000F8948091830190918401A0918501B0913C
:10060000860126B5A89B05C02F3F19F00196A11DB4
:10061000B11D3FBFBA2FA92F982F8827BC01CD014C
:10062000620F711D811D911D42E0660F771F881FAB
:10063000991F4A95D1F70895FC0101900020E9F730
:100640003197AF01481B590BBC018BE891E00C942A
:10065000E5000F931F93CF93DF93CDB7DEB7A1973C
:100660000FB6F894DEBF0FBECDBF19A281E388A3F9
:10067000CE0180960E941C038C0182E191E00E94D1
:100680001C03800F911FA1960FB6F894DEBF0FBE1A
:10069000CDBFDF91CF911F910F9108951F920F92BF
:1006A0000FB60F9211242F933F934F935F936F9345
:1006B0007F938F939F93AF93BF93EF93FF938BE8B9
:1006C00091E00E946301FF91EF91BF91AF919F91E3
:1006D0008F917F916F915F914F913F912F910F90EB
:1006E0000FBE0F901F9018951F920F920FB60F928A
:1006F00011242F938F939F93EF93FF93E0919B018E
:10070000F0919C018081E091A101F091A20182FD14
:100710001BC090818091A4018F5F8F732091A501F0
:10072000821741F0E091A401F0E0E557FE4F958F6C
:100730008093A401FF91EF919F918F912F910F9042
:100740000FBE0F901F9018958081F4CF1F920F92CB
:100750000FB60F9211242F933F938F939F93AF93D4
:10076000BF938091870190918801A0918901B091F8
:100770008A013091820123E0230F2D3758F501962D
:10078000A11DB11D20938201809387019093880160
:10079000A0938901B0938A01809183019091840193
:1007A000A0918501B09186010196A11DB11D809394
:1007B000830190938401A0938501B0938601BF913A
:1007C000AF919F918F913F912F910F900FBE0F90FE
:1007D0001F90189526E8230F0296A11DB11DD2CFB8
:1007E000EBE8F1E01382128288EE93E0A0E0B0E043
:1007F00084839583A683B78384E091E0918380838B
:1008000085EC90E09587848784EC90E097878687D5
:1008100080EC90E0918B808B81EC90E0938B828BCD
:1008200082EC90E0958B848B86EC90E0978B868BA6
:10083000118E128E138E148EE8E2F2E01682178269
:1008400010861186128613861486158616861786DC
:10085000108A118A128A138A148A158A86E00E94E5
:100860001B0290937702809376028CE00E941B0219
:10087000909375028093740288E00E941B0290930B
:1008800073028093720287E00E941B0290937102B0
:10089000809370028BE00E941B0290936F02809302
:1008A0006E020895789484B5826084BD84B58160B9
:1008B00084BD85B5826085BD85B5816085BD80912B
:1008C0006E00816080936E001092810080918100A3
:1008D000826080938100809181008160809381009B
:1008E000809180008160809380008091B10084605D
:1008F0008093B1008091B00081608093B0008091BE
:100900007A00846080937A0080917A00826080937C
:100910007A0080917A00816080937A0080917A00D9
:10092000806880937A001092C10010926A0210923F
:100930006B0210926C0210926D0210922A021092B9
:100940002B0210922C0210922D0268EB7BE080E0CB
:1009500090E00E94B4000E94F7024B015C0188EE17
:10096000C82E83E0D82EE12CF12C0E94F7026819E2
:1009700079098A099B09683E734081059105A8F3AE
:1009800021E0C21AD108E108F10888EE880E83E060
:10099000981EA11CB11CC114D104E104F10429F773
:1009A0000E948C002FB7F894809187019091880164
:1009B000A0918901B0918A012FBF80932A02909360
:1009C0002B02A0932C02B0932D0285E191E00E94AE
:1009D0001C036AE070E080E090E00E94B40081E0D7
:1009E00080933E022FB7F8948091870190918801FF
:1009F000A0918901B0918A012FBF80932A02909320
:100A00002B02A0932C02B0932D0286E291E00E946B
:100A10001C030E948C0061E082E00E94720261E08F
:100A200083E00E94720261E084E00E94720261E051
:100A300085E00E94720261E089E00E94720261E03A
:100A40008AE00E94720260E082E00E94440261E05B
:100A500083E00E94440261E084E00E94440260E07E
:100A600085E00E94440260E086E00E94720260E03D
:100A700087E00E94720260E08BE00E94720260E0F8
:100A80008CE00E94720260E088E00E94720261E0E5
:100A90008DE00E947202C0E0D0E020917602309199
:100AA00077022115310589F464E370E08AE00E9441
:100AB000A30270E060E089E00E94A3028DE291E071
:100AC0000E941C030E94290333C0809172029091FE
:100AD0007302009771F0609170027091710261155C
:100AE000710539F0E0916E02F0916F02309709F0D4
:100AF00053C087E00E941B026C018BE00E941B0226
:100B00007C0188E00E941B020097E9F462E370E038
:100B10008AE00E94A30269E370E089E00E94A302D8
:100B20008CE391E00E941C0382E191E00E941C038F
:100B3000209709F4B2CF0E944F01882309F4ADCF6A
:100B40000E940000AACFC114D10491F4EA94EF28C6
:100B500079F7019769F760E370E08AE00E94A302E9
:100B60006EE170E089E00E94A3028DE491E0DECFA7
:100B7000CA94CD28E9F6EF28D9F60197C9F66EE1B7
:100B800070E08AE00E94A30260E370E089E00E94C6
:100B9000A3028AE591E0CACF409174025091750298
:100BA0004115510569F470E060E08AE00E94A302FB
:100BB00069E370E089E00E94A30288E691E080CFBB
:100BC000319709F0B5CF6130710509F0B1CF4130EF
:100BD000510509F0ADCF2130310509F0A9CF0197BA
:100BE00009F0A6CF69E370E089E00E94A30270E0FB
:100BF00060E08AE00E94A30288E791E061CFEE0FF7
:100C0000FF1F0590F491E02D0994F894FFCF0000A8
:100C100000008501E5001201D201430121013501E7
:100C20000D0A00564D4450565F317C315F564D449D
:100C300050560A00564D4450525F005475726E690A
:100C40006E67204C6566743A200048656164696E81
:100C500067205374726169676874004E75646769D0
:100C60006E67204C656674004E756467696E672018
:100C70005269676874005475726E696E6720726994
:100C80006768743A200055207475726E3A2000002F
:107E0000112484B714BE81FFF0D085E080938100F7
:107E100082E08093C00088E18093C10086E0809377
:107E2000C20080E18093C4008EE0C9D0259A86E02C
:107E300020E33CEF91E0309385002093840096BBD3
:107E4000B09BFECF1D9AA8958150A9F7CC24DD24C4
:107E500088248394B5E0AB2EA1E19A2EF3E0BF2EE7
:107E6000A2D0813461F49FD0082FAFD0023811F036
:107E7000013811F484E001C083E08DD089C08234E0
:107E800011F484E103C0853419F485E0A6D080C0E4
:107E9000853579F488D0E82EFF2485D0082F10E0AE
:107EA000102F00270E291F29000F111F8ED06801E7
:107EB0006FC0863521F484E090D080E0DECF843638
:107EC00009F040C070D06FD0082F6DD080E0C81688
:107ED00080E7D80618F4F601B7BEE895C0E0D1E017
:107EE00062D089930C17E1F7F0E0CF16F0E7DF06D8
:107EF00018F0F601B7BEE89568D007B600FCFDCFD4
:107F0000A601A0E0B1E02C9130E011968C91119780
:107F100090E0982F8827822B932B1296FA010C0160
:107F200087BEE89511244E5F5F4FF1E0A038BF0790
:107F300051F7F601A7BEE89507B600FCFDCF97BE46
:107F4000E89526C08437B1F42ED02DD0F82E2BD052
:107F50003CD0F601EF2C8F010F5F1F4F84911BD097
:107F6000EA94F801C1F70894C11CD11CFA94CF0C13
:107F7000D11C0EC0853739F428D08EE10CD085E9AC
:107F80000AD08FE07ACF813511F488E018D01DD067
:107F900080E101D065CF982F8091C00085FFFCCF94
:107FA0009093C60008958091C00087FFFCCF809118
:107FB000C00084FD01C0A8958091C6000895E0E648
:107FC000F0E098E1908380830895EDDF803219F02E
:107FD00088E0F5DFFFCF84E1DECF1F93182FE3DFCA
:107FE0001150E9F7F2DF1F91089580E0E8DFEE27F6
:047FF000FF270994CA
:027FFE00040479
:00000001FF
