:100000000C9462000C948A000C948A000C948A0070
:100010000C948A000C948A000C948A000C948A0038
:100020000C948A000C948A000C948A000C948A0028
:100030000C948A000C948A000C948A000C948A0018
:100040000C94E6040C948A000C94B4040C948E0472
:100050000C948A000C948A000C948A000C948A00F8
:100060000C948A000C948A000000000024002700F1
:100070002A0000000000250028002B0000000000DE
:1000800023002600290004040404040404040202DA
:100090000202020203030303030301020408102007
:1000A0004080010204081020010204081020000012
:1000B0000008000201000003040700000000000027
:1000C0000000300511241FBECFEFD8E0DEBFCDBF4A
:1000D00022E0A2E4B1E001C01D92AE34B207E1F724
:1000E00011E0A0E0B1E0E0EFF1E102C005900D9277
:1000F000A234B107D9F710E0C2E6D0E004C02197DE
:10010000FE010E94F008C136D107C9F70E946F05B1
:100110000C94F6080C940000EBE6F1E0A089B1899C
:1001200082E08C93A485B5851C92A685B7858FEC5B
:100130008C93108EA489B58986E08C93A289B389AB
:100140008C9180618C93A289B3898C9188608C9307
:10015000A289B3898C9180688C930288F389E02D01
:1001600080818F7D80830895AF92BF92CF92DF927E
:10017000EF92FF920F931F93CF93DF936C017B015C
:100180008B01040F151FEB015E01AE18BF08C017ED
:10019000D10759F06991D601ED91FC910190F08160
:1001A000E02DC6010995892B79F7C501DF91CF9123
:1001B0001F910F91FF90EF90DF90CF90BF90AF9085
:1001C0000895FC01538D448D252F30E0842F90E05D
:1001D000821B930B541710F0CF9608950197089542
:1001E000FC01918D828D981761F0A28DAE0FBF2F0B
:1001F000B11D5D968C91928D9F5F9F73928F90E061
:1002000008958FEF9FEF0895FC01918D828D9817CF
:1002100031F0828DE80FF11D858D90E008958FEF0C
:100220009FEF0895FC01918D228D892F90E0805CD5
:100230009F4F821B91098F73992708958BE691E058
:100240000E94120121E0892B09F420E0822F0895F9
:1002500080E090E0892B29F00E941E0181110C940E
:1002600000000895FC01A48DA80FB92FB11DA35A59
:10027000BF4F2C91848D90E001968F739927848FC6
:10028000A689B7892C93A089B1898C9183708064E9
:100290008C93938D848D981306C00288F389E02D8A
:1002A00080818F7D80830895EF92FF920F931F933B
:1002B000CF93DF93EC0181E0888F9B8D8C8D981319
:1002C0001AC0E889F989808185FF15C09FB7F89425
:1002D000EE89FF896083E889F98980818370806471
:1002E00080839FBF81E090E0DF91CF911F910F91BC
:1002F000FF90EF900895F62E0B8D10E00F5F1F4FCB
:100300000F731127E02E8C8D8E110CC00FB607FCD9
:10031000FACFE889F989808185FFF5CFCE010E9467
:100320003201F1CFEB8DEC0FFD2FF11DE35AFF4FA2
:10033000F0829FB7F8940B8FEA89FB8980818062F5
:10034000CFCFCF93DF93EC01888D8823B9F0AA89B2
:10035000BB89E889F9898C9185FD03C0808186FD80
:100360000DC00FB607FCF7CF8C9185FFF2CF8081CF
:1003700085FFEDCFCE010E943201E9CFDF91CF9111
:100380000895833081F028F4813099F08230A9F00B
:1003900008958730A9F08830C9F08430B1F4809195
:1003A00080008F7D03C0809180008F7780938000D4
:1003B000089584B58F7784BD089584B58F7DFBCF74
:1003C0008091B0008F778093B00008958091B00045
:1003D0008F7DF9CFCF93DF93282F30E0F901E255DD
:1003E000FF4F8491F901E656FF4FD491F901EA5786
:1003F000FF4FC491CC23A1F081110E94C101EC2FC9
:10040000F0E0EE0FFF1FE458FF4FA591B491EC917F
:10041000ED2381E090E009F480E0DF91CF91089531
:1004200080E090E0FACF1F93CF93DF93282F30E046
:10043000F901E255FF4F8491F901E656FF4FD4913F
:10044000F901EA57FF4FC491CC23A9F0162F81116F
:100450000E94C101EC2FF0E0EE0FFF1FEE58FF4F9E
:10046000A591B4918FB7F894EC91111108C0D09573
:10047000DE23DC938FBFDF91CF911F910895DE2B98
:10048000F8CFCF93DF9390E0FC01E656FF4F249125
:100490008A579F4FFC0184918823D1F090E0880F08
:1004A000991FFC01E859FF4FA591B491FC01EE584A
:1004B000FF4FC591D49161110EC09FB7F8948C91F4
:1004C000E22FE0958E238C932881E223E8839FBF5F
:1004D000DF91CF9108958FB7F894EC91E22BEC93D4
:1004E0008FBFF6CF1F93CF93DF93182FEB0161E0FF
:1004F0000E944102209739F460E0812FDF91CF9173
:100500001F910C941302E12FF0E0E255FF4FE491AC
:10051000E33011F148F4E130B9F0E23069F784B525
:10052000806284BDC8BD14C0E73001F1E83031F10C
:10053000E43011F780918000806280938000D09336
:100540008B00C0938A0004C084B5806884BDC7BD99
:10055000DF91CF911F9108958091800080688093F2
:100560008000D0938900C0938800F2CF8091B000C2
:1005700080688093B000C093B300EACF8091B00050
:1005800080628093B000C093B400E2CF3FB7F8948C
:1005900080914B0190914C01A0914D01B0914E0181
:1005A00026B5A89B05C02F3F19F00196A11DB11DCE
:1005B0003FBFBA2FA92F982F8827BC01CD01620F0A
:1005C000711D811D911D42E0660F771F881F991FC5
:1005D0004A95D1F708952FB7F8946091470170912B
:1005E00048018091490190914A012FBF0895FC0173
:1005F00001900020E9F73197AF01481B590BBC016E
:100600008BE691E00C94B400CF93DF93682F8BE6D8
:1006100091E00E945401EC0182E191E00E94F70216
:100620008C0F9D1FDF91CF910895AF92BF92CF9213
:10063000DF92EF92FF920F931F93CF93DF9386E0A9
:100640000E94EA017C018CE00E94EA01EC0188E052
:100650000E94EA018C0187E00E94EA016C018BE0B4
:100660000E94EA015C01E114F10411F581E090E0DF
:10067000909366018093650110926201109261016E
:1006800010926401109263011092600110925F0158
:1006900090934501809344010115110509F052C062
:1006A000209709F497C0C130D10509F04BC028C08C
:1006B0000115110529F0C114D10411F0892B71F530
:1006C00081E090E090936401809363011092660151
:1006D0001092650110926201109261011092600106
:1006E00010925F010115110569F581E0E816F1042A
:1006F000B9F6C130D105A1F610924501109244011E
:1007000080914201909143010197E1F483E70E94B7
:100710000403109243011092420114C0209779F50E
:1007200081E090E0909362018093610110926601F4
:1007300010926501109264011092630110926001A1
:1007400010925F01AA94AB2859F4CA94CD2841F4C1
:10075000219731F4EA94EF2819F40130110599F149
:10076000609144018DE0DF91CF911F910F91FF9037
:10077000EF90DF90CF90BF90AF900C94130281E088
:10078000A816B104F9F681E0C816D104D9F6C13033
:10079000D105C1F681E0E816F104A1F6013011059A
:1007A00089F681E090E09093600180935F01109260
:1007B000660110926501109262011092610110921F
:1007C00064011092630181E090E090934501809371
:1007D0004401C6CF8091420190914301892B09F0D9
:1007E000B1CF81E090E090934501809344019093D4
:1007F000430180934201A6CF8F929F92AF92BF9206
:100800000F931F93CF93DF93CDB7DEB7A1970FB6AA
:10081000F894DEBF0FBECDBF19A2423008F44AE003
:100820008E010F5D1F4F842E912CB12CA12CA501A0
:1008300094010E94CE08E62FB901CA01EA30F4F40F
:10084000E05DD801EE938D01232B242B252B79F726
:1008500090E080E0109719F0CD010E94F702A19678
:100860000FB6F894DEBF0FBECDBFDF91CF911F91C1
:100870000F91BF90AF909F908F900895E95CE1CF6A
:10088000EF92FF920F931F93CF93DF9300D000D08E
:10089000CDB7DEB78BE691E00E94F0008BE691E0E9
:1008A0000E94F0008E010F5F1F4F78018A3341F0E4
:1008B000F80181938F018BE691E00E94F000F6CF62
:1008C000C7010E94A808182F8BE691E00E94F00053
:1008D0008053990B8230910520F4682F812F0E945C
:1008E00013028BE691E00E94F0008A3011F08D3007
:1008F000C1F78BE691E00E9404018A3021F48BE677
:1009000091E00E94F0000F900F900F900F90DF91F8
:10091000CF911F910F91FF90EF9008951F920F922A
:100920000FB60F9211242F933F934F935F936F93C2
:100930007F938F939F93AF93BF93EF93FF938BE638
:1009400091E00E943201FF91EF91BF91AF919F9191
:100950008F917F916F915F914F913F912F910F9068
:100960000FBE0F901F9018951F920F920FB60F9207
:1009700011242F938F939F93EF93FF93E0917B012B
:10098000F0917C018081E0918101F091820182FDF2
:100990001BC09081809184018F5F8F7320918501AE
:1009A000821741F0E0918401F0E0E559FE4F958F08
:1009B00080938401FF91EF919F918F912F910F90E0
:1009C0000FBE0F901F9018958081F4CF1F920F9249
:1009D0000FB60F9211242F933F938F939F93AF9352
:1009E000BF938091470190914801A0914901B09136
:1009F0004A013091460123E0230F2D3758F5019627
:100A0000A11DB11D20934601809347019093480199
:100A1000A0934901B0934A0180914B0190914C0100
:100A2000A0914D01B0914E010196A11DB11D809381
:100A30004B0190934C01A0934D01B0934E01BF9197
:100A4000AF919F918F913F912F910F900FBE0F907B
:100A50001F90189526E8230F0296A11DB11DD2CF35
:100A6000EBE6F1E01382128288EE93E0A0E0B0E0C2
:100A700084839583A683B78384E091E09183808308
:100A800085EC90E09587848784EC90E09787868753
:100A900080EC90E0918B808B81EC90E0938B828B4B
:100AA00082EC90E0958B848B86EC90E0978B868B24
:100AB000118E128E138E148EE8E0F2E016821782E9
:100AC000108611861286138614861586168617865A
:100AD000108A118A128A138A148A158A08957894C2
:100AE00084B5826084BD84B5816084BD85B5826033
:100AF00085BD85B5816085BD80916E0081608093E4
:100B00006E0010928100809181008260809381004C
:100B1000809181008160809381008091800081605C
:100B2000809380008091B10084608093B1008091B7
:100B3000B00081608093B00080917A0084608093DF
:100B40007A0080917A00826080937A0080917A00A6
:100B5000816080937A0080917A00806880937A0027
:100B60001092C10010924A0210924B0210924C0255
:100B700010924D0210920A0210920B0210920C0277
:100B800010920D020E94EB026B017C014B015C0193
:100B900028EB820E2BE0921EA11CB11C0E94EB02DE
:100BA0006C157D058E059F0528F086169706A8060C
:100BB000B906A0F70E94C6024B015C0128EEC22EC6
:100BC00023E0D22EE12CF12C0E94C602681979098B
:100BD0008A099B09683E734081059105A8F331E0BD
:100BE000C31AD108E108F10848EE840E43E0941ED0
:100BF000A11CB11CC114D104E104F10429F70E9425
:100C00008C000E94EB0260930A0270930B028093A7
:100C10000C0290930D0285E191E00E94F7020E9480
:100C2000EB026B017C014B015C018AE0880E911C98
:100C3000A11CB11C0E94EB026C157D058E059F0561
:100C400028F086169706A806B906A0F781E08093DB
:100C50001E020E94EB0260930A0270930B028093C3
:100C60000C0290930D0286E291E00E94F7020E942E
:100C70008C0061E082E00E94410261E083E00E941A
:100C8000410261E084E00E94410261E085E00E944F
:100C9000410261E089E00E94410261E08AE00E9435
:100CA000410260E082E00E94130261E083E00E9462
:100CB000130261E084E00E94130260E085E00E947C
:100CC000130260E086E00E94410260E087E00E943B
:100CD000410260E08BE00E94410260E08CE00E94F3
:100CE000410260E088E00E94410261E08DE00E94E4
:100CF000410280E0282E80E0382E94EF892E99243E
:100D00009394A12CB12C0E94EB02672B682B692BCA
:100D100009F4EFC00E94EB02009167011091680195
:100D20002091690130916A0160177107820793076A
:100D300008F457C100916701109168012091690181
:100D400030916A016B017C01C01AD10AE20AF30AF0
:100D5000970186010A3F11052105310508F4D1C02C
:100D600060936701709368018093690190936A01B1
:100D70008092160290921702A0921802B092190265
:100D800010921A0210921B0210921C0210921D0265
:100D900080910E0290910F02A0911002B091110269
:100DA0008093120290931302A0931402B093150241
:100DB0000E94EB0260930E0270930F028093100268
:100DC000909311028BE691E00E940401843611F4A5
:100DD0000E9440040E94EB0260930A0270930B028F
:100DE00080930C0290930D020E94EB022B013C01B8
:100DF0008DE291E00E94F7024AE061E070E080E05D
:100E000090E00E94FC0384E391E00E94F7024AE034
:100E1000C301B2010E94FC0386E391E00E94F70245
:100E200080910E0290910F02A0911002B0911102D8
:100E3000A3019201281B390B4A0B5B0BCA01B901B4
:100E40004AE00E94FC0386E391E00E94F702609171
:100E50000E0270910F028091100290911102009188
:100E60001202109113022091140230911502601B9E
:100E7000710B820B930B4AE00E94FC0388E391E024
:100E80000E94F7020E94EB024AE00E94FC038AE300
:100E900091E00E94F70282E191E00E94F7020E9435
:100EA000EB026B017C012B013C0135E0430E511C30
:100EB000611C711C0E94EB026C157D058E059F055F
:100EC00028F04616570668067906A0F78BE691E0EB
:100ED0000E940401843611F40E9440040E94EB0237
:100EE00060930E0270930F02809310029093110290
:100EF00008C00E94EB02623071058105910508F07F
:100F000009CF0E941503C0916501D0916601C130DF
:100F1000D10509F06FC064E370E08AE00E947202BC
:100F200070E060E089E00E947202D0935E01C0939D
:100F30005D01D0935C01C0935B010E941503809119
:100F40005D0190915E01019769F080915B01909144
:100F50005C01019739F48CE60E94040310925C0155
:100F600010925B018091590190915A01019709F407
:100F7000C5C08091570190915801019709F0BEC0FA
:100F800080915D0190915E01019709F4B7C0809155
:100F90005B0190915C01019709F0B0C083E70E946A
:100FA0000403109258011092570110925E011092A2
:100FB0005D0110925601109255011092520110924B
:100FC000510110925A01109259012114310409F46F
:100FD0009ACE0E941E01882309F495CE0E9400003B
:100FE00092CE60936701709368018093690190933A
:100FF0006A01A0CEC0916301D0916401C130D105D6
:1010000009F047C087E00E94EA017C018BE00E9462
:10101000EA018C0188E00E94EA01009799F462E3FA
:1010200070E08AE00E94720269E370E089E00E9449
:101030007202D0935A01C0935901D0935801C093C2
:1010400057017BCFE114F10491F40130110509F04F
:1010500074CF019709F071CF60E370E08AE00E94DD
:1010600072026EE170E089E00E94720266CFEA943B
:10107000EF2809F062CF012B09F05FCF019709F04B
:101080005CCF6EE170E08AE00E94720260E370E083
:10109000EACFC0916101D0916201C130D10599F4CC
:1010A00070E060E08AE00E94720269E370E089E02B
:1010B0000E947202D0935601C0935501D0935401FF
:1010C000C09353013ACFC0915F01D0916001C1300C
:1010D000D10509F032CF69E370E089E00E94720225
:1010E00070E060E08AE00E947202D0935201C093E7
:1010F0005101D0935001C0934F011FCF80915501F2
:1011000090915601019771F0809153019091540193
:10111000019741F482E70E94040310925401109257
:10112000530143CF8091510190915201019709F4ED
:101130003CCF80914F0190915001019709F035CF3C
:1011400082E60E9404031092500110924F012DCFAD
:10115000FC0188279927E89421912032E9F329306E
:1011600010F02E30C8F32B3241F02D3239F4689450
:1011700004C00E94C608820F911D219120532A307D
:10118000C0F31EF4909581959F4F08957AE0979F44
:10119000902D879F802D910D11240895A1E21A2E84
:1011A000AA1BBB1BFD010DC0AA1FBB1FEE1FFF1F0B
:1011B000A217B307E407F50720F0A21BB30BE40B5B
:1011C000F50B661F771F881F991F1A9469F76095A2
:1011D0007095809590959B01AC01BD01CF0108955C
:1011E000EE0FFF1F0590F491E02D0994F894FFCFC6
:1011F000000000005401B400E100A1011201F00060
:1012000004010D0A00564D4450565F317C315F5643
:101210004D4450560A00564D4450525F00564D44BE
:1012200050455F003A323A007C005F564D445045CD
:021230000000BC
:00000001FF
