:020000040000FA
:100000000C9462000C948A000C948A000C948A0070
:100010000C948A000C948A000C948A000C948A0038
:100020000C948A000C948A000C948A000C948A0028
:100030000C948A000C948A000C948A000C948A0018
:100040000C941D050C948A000C94EB040C94C504CC
:100050000C948A000C948A000C948A000C948A00F8
:100060000C948A000C948A000000000024002700F1
:100070002A0000000000250028002B0000000000DE
:1000800023002600290004040404040404040202DA
:100090000202020203030303030301020408102007
:1000A0004080010204081020010204081020000012
:1000B0000008000201000003040700000000000027
:1000C0000000670511241FBECFEFD8E0DEBFCDBF13
:1000D00022E0A6E4B1E001C01D92A83BB207E1F71F
:1000E00011E0A0E0B1E0E0EAF2E102C005900D927B
:1000F000A634B107D9F710E0C2E6D0E004C02197DA
:10010000FE010E944809C136D107C9F70E94A60521
:100110000C944E090C940000E5EDF1E0A089B18942
:1001200082E08C93A485B5851C92A685B7858FEC5B
:100130008C93108EA489B58986E08C93A289B389AB
:100140008C9180618C93A289B3898C9188608C9307
:10015000A289B3898C9180688C930288F389E02D01
:1001600080818F7D80830895AF92BF92CF92DF927E
:10017000EF92FF920F931F93CF93DF936C017B015C
:100180008B01040F151FEB015E01AE18BF08C017ED
:10019000D10759F06991D601ED91FC910190F08160
:1001A000E02DC6010995892B79F7C501DF91CF9123
:1001B0001F910F91FF90EF90DF90CF90BF90AF9085
:1001C0000895FC01538D448D252F30E0842F90E05D
:1001D000821B930B541710F0CF9608950197089542
:1001E000FC01918D828D981761F0A28DAE0FBF2F0B
:1001F000B11D5D968C91928D9F5F9F73928F90E061
:1002000008958FEF9FEF0895FC01918D828D9817CF
:1002100031F0828DE80FF11D858D90E008958FEF0C
:100220009FEF0895FC01918D228D892F90E0805CD5
:100230009F4F821B91098F739927089585ED91E057
:100240000E94120121E0892B09F420E0822F0895F9
:1002500080E090E0892B29F00E941E0181110C940E
:1002600000000895FC01A48DA80FB92FB11DA35A59
:10027000BF4F2C91848D90E001968F739927848FC6
:10028000A689B7892C93A089B1898C9183708064E9
:100290008C93938D848D981306C00288F389E02D8A
:1002A00080818F7D80830895EF92FF920F931F933B
:1002B000CF93DF93EC0181E0888F9B8D8C8D981319
:1002C0001AC0E889F989808185FF15C09FB7F89425
:1002D000EE89FF896083E889F98980818370806471
:1002E00080839FBF81E090E0DF91CF911F910F91BC
:1002F000FF90EF900895F62E0B8D10E00F5F1F4FCB
:100300000F731127E02E8C8D8E110CC00FB607FCD9
:10031000FACFE889F989808185FFF5CFCE010E9467
:100320003201F1CFEB8DEC0FFD2FF11DE35AFF4FA2
:10033000F0829FB7F8940B8FEA89FB8980818062F5
:10034000CFCF682F85ED91E00C945401CF93DF93CC
:10035000EC01888D8823B9F0AA89BB89E889F989DD
:100360008C9185FD03C0808186FD0DC00FB607FC12
:10037000F7CF8C9185FFF2CF808185FFEDCFCE0145
:100380000E943201E9CFDF91CF910895833081F04F
:1003900028F4813099F08230A9F008958730A9F0CF
:1003A0008830C9F08430B1F4809180008F7D03C023
:1003B000809180008F7780938000089584B58F7737
:1003C00084BD089584B58F7DFBCF8091B0008F7779
:1003D0008093B00008958091B0008F7DF9CFCF93C6
:1003E000DF93282F30E0F901E255FF4F8491F901A6
:1003F000E656FF4FD491F901EA57FF4FC491CC2341
:10040000A1F081110E94C601EC2FF0E0EE0FFF1F5A
:10041000E458FF4FA591B491EC91ED2381E090E079
:1004200009F480E0DF91CF91089580E090E0FACF69
:100430001F93CF93DF93282F30E0F901E255FF4F50
:100440008491F901E656FF4FD491F901EA57FF4F25
:10045000C491CC23A9F0162F81110E94C601EC2F64
:10046000F0E0EE0FFF1FEE58FF4FA591B4918FB74C
:10047000F894EC91111108C0D095DE23DC938FBF66
:10048000DF91CF911F910895DE2BF8CFCF93DF93AB
:1004900090E0FC01E656FF4F24918A579F4FFC01E4
:1004A00084918823D1F090E0880F991FFC01E859CE
:1004B000FF4FA591B491FC01EE58FF4FC591D49127
:1004C00061110EC09FB7F8948C91E22FE0958E23B6
:1004D0008C932881E223E8839FBFDF91CF91089519
:1004E0008FB7F894EC91E22BEC938FBFF6CF1F936C
:1004F000CF93DF93182FEB0161E00E944602209713
:1005000039F460E0812FDF91CF911F910C94180294
:10051000E12FF0E0E255FF4FE491E33011F148F4B0
:10052000E130B9F0E23069F784B5806284BDC8BDBE
:1005300014C0E73001F1E83031F1E43011F7809177
:100540008000806280938000D0938B00C0938A00EB
:1005500004C084B5806884BDC7BDDF91CF911F9171
:10056000089580918000806880938000D0938900F6
:10057000C0938800F2CF8091B00080688093B00073
:10058000C093B300EACF8091B00080628093B00046
:10059000C093B400E2CF3FB7F89480914F0190919F
:1005A0005001A0915101B091520126B5A89B05C000
:1005B0002F3F19F00196A11DB11D3FBFBA2FA92FE2
:1005C000982F8827BC01CD01620F711D811D911DDF
:1005D00042E0660F771F881F991F4A95D1F708954B
:1005E0002FB7F89460914B0170914C0180914D01AF
:1005F00090914E012FBF089570E060E089E00E9465
:10060000770262E370E08AE00E94770281E090E086
:1006100090935A0180935901909358018093570108
:10062000089562E370E089E00E94770270E060E084
:100630008AE00E94770281E090E09093C801809365
:10064000C7019093C6018093C5010895FC010190F4
:100650000020E9F73197AF01481B590BBC0185ED2C
:1006600091E00C94B4008F929F92AF92BF920F933F
:100670001F93CF93DF93CDB7DEB7A1970FB6F89452
:10068000DEBF0FBECDBF19A2423008F44AE08E0192
:100690000F5D1F4F842E912CB12CA12CA50194012C
:1006A0000E942609E62FB901CA01EA30F4F4E05DA0
:1006B000D801EE938D01232B242B252B79F790E085
:1006C00080E0109719F0CD010E942603A1960FB685
:1006D000F894DEBF0FBECDBFDF91CF911F910F9178
:1006E000BF90AF909F908F900895E95CE1CF0C94FC
:1006F0002603AF92BF92CF92DF92EF92FF920F93B9
:100700001F93CF93DF9386E00E94EF017C018CE082
:100710000E94EF01EC0188E00E94EF018C0187E06C
:100720000E94EF016C018BE00E94EF015C01E1147B
:10073000F10411F581E090E09093D0018093CF0116
:100740001092CC011092CB011092CE011092CD01EB
:100750001092CA011092C9019093490180934801F7
:100760000115110509F074C0209709F4B5C0C13016
:10077000D10509F06DC02AC00115110531F0C11471
:10078000D10419F0892B09F04FC081E090E09093DB
:10079000CE018093CD011092D0011092CF01109222
:1007A000CC011092CB011092CA011092C90101151F
:1007B000110509F04DC081E0E816F104A9F6C13039
:1007C000D10591F61092490110924801809146019D
:1007D000909147010197E1F58091C3019091C40187
:1007E00001969093C4018093C301815A9E4F23E7E1
:1007F000FC01208382E191E00E947703E091C30134
:10080000F091C401E15AFE4F80810E94A10182E172
:1008100091E00E94770384E191E00E9477031092B7
:1008200047011092460114C0209779F581E090E0CD
:100830009093CC018093CB011092D0011092CF0104
:100840001092CE011092CD011092CA011092C901EE
:10085000AA94AB2859F4CA94CD2841F4219731F4D5
:10086000EA94EF2819F40130110579F160914801FB
:100870008DE0DF91CF911F910F91FF90EF90DF906E
:10088000CF90BF90AF900C941802AA94AB2871F748
:10089000CA94CD2859F7219749F7EA94EF2831F700
:1008A0000130110519F781E090E09093CA0180931F
:1008B000C9011092D0011092CF011092CC01109278
:1008C000CB011092CE011092CD0181E090E0909387
:1008D000490180934801CACF81E090E0909349019B
:1008E000809348019093470180934601B1CFEF92E6
:1008F000FF920F931F93CF93DF9300D000D0CDB71B
:10090000DEB785ED91E00E94F00085ED91E00E9458
:10091000F0008E010F5F1F4F78018A3341F0F8011C
:1009200081938F0185ED91E00E94F000F6CFC70121
:100930000E940009182F85ED91E00E94F00080537D
:10094000990B8230910520F4682F812F0E941802A4
:1009500085ED91E00E94F0008A3011F08D30C1F7F2
:1009600085ED91E00E9404018A3021F485ED91E04B
:100970000E94F0000F900F900F900F90DF91CF9199
:100980001F910F91FF90EF9008951F920F920FB655
:100990000F9211242F933F934F935F936F937F9305
:1009A0008F939F93AF93BF93EF93FF9385ED91E068
:1009B0000E943201FF91EF91BF91AF919F918F9172
:1009C0007F916F915F914F913F912F910F900FBE4B
:1009D0000F901F9018951F920F920FB60F9211242F
:1009E0002F938F939F93EF93FF93E091E501F09105
:1009F000E6018081E091EB01F091EC0182FD1BC0EA
:100A000090818091EE018F5F8F732091EF018217AB
:100A100041F0E091EE01F0E0EB52FE4F958F8093B4
:100A2000EE01FF91EF919F918F912F910F900FBE4B
:100A30000F901F9018958081F4CF1F920F920FB6E0
:100A40000F9211242F933F938F939F93AF93BF9354
:100A500080914B0190914C01A0914D01B0914E01BC
:100A600030914A0123E0230F2D3758F50196A11D3F
:100A7000B11D20934A0180934B0190934C01A093A8
:100A80004D01B0934E0180914F0190915001A09182
:100A90005101B09152010196A11DB11D80934F01EA
:100AA00090935001A0935101B0935201BF91AF9127
:100AB0009F918F913F912F910F900FBE0F901F909C
:100AC000189526E8230F0296A11DB11DD2CFE5EDA2
:100AD000F1E01382128288EE93E0A0E0B0E084831C
:100AE0009583A683B78384E091E09183808385EC2E
:100AF00090E09587848784EC90E09787868780ECE8
:100B000090E0918B808B81EC90E0938B828B82ECD8
:100B100090E0958B848B86EC90E0978B868B118E82
:100B2000128E138E148EE2E7F2E016821782108680
:100B30001186128613861486158616861786108AE5
:100B4000118A128A138A148A158A0895789484B5B2
:100B5000826084BD84B5816084BD85B5826085BDB9
:100B600085B5816085BD80916E00816080936E0047
:100B70001092810080918100826080938100809139
:100B800081008160809381008091800081608093EA
:100B900080008091B10084608093B1008091B000AA
:100BA00081608093B00080917A00846080937A00A5
:100BB00080917A00826080937A0080917A008160CF
:100BC00080937A0080917A00806880937A001092F6
:100BD000C1001092B4021092B5021092B6021092A7
:100BE000B70210927402109275021092760210925F
:100BF00077020E94F0026B017C012B013C0128EB83
:100C0000420E2BE0521E611C711C0E94F0026C15FA
:100C10007D058E059F0528F046165706680679065D
:100C2000A0F70E94CB022B013C0168EEC62E63E0C8
:100C3000D62EE12CF12C0E94CB026419750986098D
:100C40009709683E734081059105A8F331E0C31A06
:100C5000D108E108F10848EE440E43E0541E611C3F
:100C6000711CC114D104E104F10429F70E948C0025
:100C70000E94F00260937402709375028093760272
:100C80009093770287E191E00E9477030E94F0023F
:100C90006B017C012B013C018AE0480E511C611C58
:100CA000711C0E94F0026C157D058E059F0528F0D1
:100CB0004616570668067906A0F781E080938802F9
:100CC0000E94F00260937402709375028093760222
:100CD0009093770288E291E00E9477030E948C0053
:100CE00061E084E00E94460261E085E00E944602E5
:100CF00061E082E00E94460261E083E00E944602D9
:100D000061E08AE00E94460261E089E00E944602BA
:100D100061E084E00E94180260E085E00E94180211
:100D200061E082E00E94180260E083E00E94180205
:100D300060E086E00E94460260E087E00E94460292
:100D400060E08BE00E94460260E08CE00E94460278
:100D500060E088E00E94460261E08DE00E94460269
:100D60003CE6332E42E6242E54EF452E5524539470
:100D7000612C712C0E94F002672B682B692B09F4FF
:100D8000EFC00E94F0020091D1011091D201209198
:100D9000D3013091D401601771078207930708F4DB
:100DA00065C10091D1011091D2012091D301309100
:100DB000D4016B017C01C01AD10AE20AF30A97013F
:100DC00086010A3F11052105310508F4D1C0609361
:100DD000D1017093D2018093D3019093D4014092BA
:100DE000800250928102609282027092830210927D
:100DF00084021092850210928602109287028091DE
:100E0000780290917902A0917A02B0917B0280934E
:100E10007C0290937D02A0937E02B0937F020E9499
:100E2000F002609378027093790280937A02909333
:100E30007B0285ED91E00E940401843611F40E944A
:100E400077040E94F002609374027093750280939D
:100E50007602909377020E94F0026B017C018FE290
:100E600091E00E9477034AE061E070E080E090E06A
:100E70000E94330386E391E00E9477034AE0C701B2
:100E8000B6010E94330388E391E00E9477038091CA
:100E9000780290917902A0917A02B0917B02A70129
:100EA0009601281B390B4A0B5B0BCA01B9014AE0BA
:100EB0000E94330388E391E00E94770360917802F7
:100EC0007091790280917A0290917B0200917C026C
:100ED00010917D0220917E0230917F02601B710B88
:100EE000820B930B4AE00E9433038AE391E00E9455
:100EF00077030E94F0024AE00E9433038CE391E002
:100F00000E94260383E491E00E9426030E94F002DF
:100F10004B015C017C016B0135E0C30ED11CE11C6F
:100F2000F11C0E94F002681579058A059B0528F0DE
:100F3000C616D706E806F906A0F785ED91E00E94EF
:100F40000401843611F40E9477040E94F002609339
:100F500078027093790280937A0290937B0208C0A2
:100F60000E94F002623071058105910508F009CFF9
:100F70000E9479038091CF019091D001019709F0EF
:100F80007EC00E9411030E9479038091C701909155
:100F9000C801019761F18091C5019091C601019747
:100FA00031F58091C3019091C40101969093C401E1
:100FB0008093C301815A9E4FFC01308282E191E00F
:100FC0000E947703E091C301F091C401E15AFE4F02
:100FD00080810E94A10182E191E00E94770384E177
:100FE00091E00E9477031092C6011092C501809192
:100FF0005D0190915E01019709F498C080915B01B9
:1010000090915C01019709F091C08091C701909186
:10101000C801019709F48AC08091C5019091C60169
:10102000019709F083C010925C0110925B0110924D
:10103000C8011092C70110925A01109259011092E2
:1010400056011092550110925E0110925D0180E0F0
:10105000C82E80E0D82ECD2809F48CCE0E941E0127
:10106000882309F487CE0E94000084CE6093D101CA
:101070007093D2018093D3019093D40192CEC0910A
:10108000CD01D091CE01C130D105C1F587E00E94DC
:10109000EF017C018BE00E94EF018C0188E00E944F
:1010A000EF01009799F467E370E089E00E9477020E
:1010B00067E370E08AE00E947702D0935E01C093FC
:1010C0005D01D0935C01C0935B015DCFE114F1043D
:1010D00041F40130110509F056CF019709F053CFC3
:1010E00050CFEA94EF2809F04ECF012B09F04BCFF7
:1010F000019709F048CF0E94FC0245CF8091CB01B7
:101100009091CC010197B9F38091C9019091CA01E6
:10111000019709F038CF70E060E089E00E94770223
:1011200070E060E08AE00E9477022DCF8091590143
:1011300090915A01019779F180915701909158014E
:10114000019749F58091C3019091C4010196909354
:10115000C4018093C301815A9E4F22E7C22EFC0135
:10116000C08282E191E00E947703E091C301F09197
:10117000C401E15AFE4F80810E94A10182E191E009
:101180000E94770384E191E00E9477031092580156
:10119000109257014CCF80915501909156010197C3
:1011A00009F445CF8091530190915401019709F0C2
:1011B0003ECF8091C3019091C40101969093C401E8
:1011C0008093C301815A9E4FFC01208282E191E00D
:1011D0000E947703E091C301F091C401E15AFE4FF0
:1011E00080810E94A10182E191E00E94770384E165
:1011F00091E00E947703109254011092530117CF8F
:10120000FC0188279927E89421912032E9F32930BD
:1012100010F02E30C8F32B3241F02D3239F468949F
:1012200004C00E941E09820F911D219120532A3073
:10123000C0F31EF4909581959F4F08957AE0979F93
:10124000902D879F802D910D11240895A1E21A2ED3
:10125000AA1BBB1BFD010DC0AA1FBB1FEE1FFF1F5A
:10126000A217B307E407F50720F0A21BB30BE40BAA
:10127000F50B661F771F881F991F1A9469F76095F1
:101280007095809590959B01AC01BD01CF010895AB
:10129000EE0FFF1F0590F491E02D0994F894FFCF15
:1012A000000000005401B400E100A6011201F000AA
:1012B000040127002C2000564D4450565F317C31EC
:1012C0005F564D4450560A00564D4450525F0056EA
:1012D0004D4450455F003A323A007C005F564D4421
:0612E0005045000D0A005C
:107E0000112484B714BE81FFF0D085E080938100F7
:107E100082E08093C00088E18093C10086E0809377
:107E2000C20080E18093C4008EE0C9D0259A86E02C
:107E300020E33CEF91E0309385002093840096BBD3
:107E4000B09BFECF1D9AA8958150A9F7CC24DD24C4
:107E500088248394B5E0AB2EA1E19A2EF3E0BF2EE7
:107E6000A2D0813461F49FD0082FAFD0023811F036
:107E7000013811F484E001C083E08DD089C08234E0
:107E800011F484E103C0853419F485E0A6D080C0E4
:107E9000853579F488D0E82EFF2485D0082F10E0AE
:107EA000102F00270E291F29000F111F8ED06801E7
:107EB0006FC0863521F484E090D080E0DECF843638
:107EC00009F040C070D06FD0082F6DD080E0C81688
:107ED00080E7D80618F4F601B7BEE895C0E0D1E017
:107EE00062D089930C17E1F7F0E0CF16F0E7DF06D8
:107EF00018F0F601B7BEE89568D007B600FCFDCFD4
:107F0000A601A0E0B1E02C9130E011968C91119780
:107F100090E0982F8827822B932B1296FA010C0160
:107F200087BEE89511244E5F5F4FF1E0A038BF0790
:107F300051F7F601A7BEE89507B600FCFDCF97BE46
:107F4000E89526C08437B1F42ED02DD0F82E2BD052
:107F50003CD0F601EF2C8F010F5F1F4F84911BD097
:107F6000EA94F801C1F70894C11CD11CFA94CF0C13
:107F7000D11C0EC0853739F428D08EE10CD085E9AC
:107F80000AD08FE07ACF813511F488E018D01DD067
:107F900080E101D065CF982F8091C00085FFFCCF94
:107FA0009093C60008958091C00087FFFCCF809118
:107FB000C00084FD01C0A8958091C6000895E0E648
:107FC000F0E098E1908380830895EDDF803219F02E
:107FD00088E0F5DFFFCF84E1DECF1F93182FE3DFCA
:107FE0001150E9F7F2DF1F91089580E0E8DFEE27F6
:047FF000FF270994CA
:027FFE00040479
:00000001FF
