:020000040000FA
:100000000C9462000C948A000C948A000C948A0070
:100010000C948A000C948A000C948A000C948A0038
:100020000C948A000C948A000C948A000C948A0028
:100030000C948A000C948A000C948A000C948A0018
:100040000C9422040C948A000C94F0030C94CA03C0
:100050000C948A000C948A000C948A000C948A00F8
:100060000C948A000C948A000000000024002700F1
:100070002A0000000000250028002B0000000000DE
:1000800023002600290004040404040404040202DA
:100090000202020203030303030301020408102007
:1000A0004080010204081020010204081020000012
:1000B0000008000201000003040700000000000027
:1000C00000006C0411241FBECFEFD8E0DEBFCDBF0F
:1000D00022E0A2ECB1E001C01D92AA3BB207E1F719
:1000E00011E0A0E0B1E0EEE3F0E102C005900D9276
:1000F000A23CB107D9F710E0C2E6D0E004C02197D6
:10010000FE010E941708C136D107C9F70E94AB044F
:100110000C941D080C940000E7EDF1E0A089B18972
:1001200082E08C93A485B5851C92A685B7858FEC5B
:100130008C93108EA489B58986E08C93A289B389AB
:100140008C9180618C93A289B3898C9188608C9307
:10015000A289B3898C9180688C930288F389E02D01
:1001600080818F7D80830895AF92BF92CF92DF927E
:10017000EF92FF920F931F93CF93DF936C017B015C
:100180008B01040F151FEB015E01AE18BF08C017ED
:10019000D10759F06991D601ED91FC910190F08160
:1001A000E02DC6010995892B79F7C501DF91CF9123
:1001B0001F910F91FF90EF90DF90CF90BF90AF9085
:1001C0000895FC01538D448D252F30E0842F90E05D
:1001D000821B930B541710F0CF9608950197089542
:1001E000FC01918D828D981761F0A28DAE0FBF2F0B
:1001F000B11D5D968C91928D9F5F9F73928F90E061
:1002000008958FEF9FEF0895FC01918D828D9817CF
:1002100031F0828DE80FF11D858D90E008958FEF0C
:100220009FEF0895FC01918D228D892F90E0805CD5
:100230009F4F821B91098F739927089587ED91E055
:100240000E94120121E0892B09F420E0822F0895F9
:1002500080E090E0892B29F00E941E0181110C940E
:1002600000000895FC01A48DA80FB92FB11DA35A59
:10027000BF4F2C91848D90E001968F739927848FC6
:10028000A689B7892C93A089B1898C9183708064E9
:100290008C93938D848D981306C00288F389E02D8A
:1002A00080818F7D80830895EF92FF920F931F933B
:1002B000CF93DF93EC0181E0888F9B8D8C8D981319
:1002C0001AC0E889F989808185FF15C09FB7F89425
:1002D000EE89FF896083E889F98980818370806471
:1002E00080839FBF81E090E0DF91CF911F910F91BC
:1002F000FF90EF900895F62E0B8D10E00F5F1F4FCB
:100300000F731127E02E8C8D8E110CC00FB607FCD9
:10031000FACFE889F989808185FFF5CFCE010E9467
:100320003201F1CFEB8DEC0FFD2FF11DE35AFF4FA2
:10033000F0829FB7F8940B8FEA89FB8980818062F5
:10034000CFCFCF93DF93EC01888D8823B9F0AA89B2
:10035000BB89E889F9898C9185FD03C0808186FD80
:100360000DC00FB607FCF7CF8C9185FFF2CF8081CF
:1003700085FFEDCFCE010E943201E9CFDF91CF9111
:100380000895833081F028F4813099F08230A9F00B
:1003900008958730A9F08830C9F08430B1F4809195
:1003A00080008F7D03C0809180008F7780938000D4
:1003B000089584B58F7784BD089584B58F7DFBCF74
:1003C0008091B0008F778093B00008958091B00045
:1003D0008F7DF9CFCF93DF93282F30E0F901E255DD
:1003E000FF4F8491F901E656FF4FD491F901EA5786
:1003F000FF4FC491CC23A1F081110E94C101EC2FC9
:10040000F0E0EE0FFF1FE458FF4FA591B491EC917F
:10041000ED2381E090E009F480E0DF91CF91089531
:1004200080E090E0FACF1F93CF93DF93282F30E046
:10043000F901E255FF4F8491F901E656FF4FD4913F
:10044000F901EA57FF4FC491CC23A9F0162F81116F
:100450000E94C101EC2FF0E0EE0FFF1FEE58FF4F9E
:10046000A591B4918FB7F894EC91111108C0D09573
:10047000DE23DC938FBFDF91CF911F910895DE2B98
:10048000F8CFCF93DF9390E0FC01E656FF4F249125
:100490008A579F4FFC0184918823D1F090E0880F08
:1004A000991FFC01E859FF4FA591B491FC01EE584A
:1004B000FF4FC591D49161110EC09FB7F8948C91F4
:1004C000E22FE0958E238C932881E223E8839FBF5F
:1004D000DF91CF9108958FB7F894EC91E22BEC93D4
:1004E0008FBFF6CF1F93CF93DF93182FEB0161E0FF
:1004F0000E944102209739F460E0812FDF91CF9173
:100500001F910C941302E12FF0E0E255FF4FE491AC
:10051000E33011F148F4E130B9F0E23069F784B525
:10052000806284BDC8BD14C0E73001F1E83031F10C
:10053000E43011F780918000806280938000D09336
:100540008B00C0938A0004C084B5806884BDC7BD99
:10055000DF91CF911F9108958091800080688093F2
:100560008000D0938900C0938800F2CF8091B000C2
:1005700080688093B000C093B300EACF8091B00050
:1005800080628093B000C093B400E2CF3FB7F8948C
:100590008091C7019091C801A091C901B091CA0191
:1005A00026B5A89B05C02F3F19F00196A11DB11DCE
:1005B0003FBFBA2FA92F982F8827BC01CD01620F0A
:1005C000711D811D911D42E0660F771F881F991FC5
:1005D0004A95D1F708952FB7F8946091C3017091AF
:1005E000C4018091C5019091C6012FBF0895FC01FF
:1005F00001900020E9F73197AF01481B590BBC016E
:1006000087ED91E00C94B4008F929F92AF92BF92CD
:100610000F931F93CF93DF93CDB7DEB7A1970FB69C
:10062000F894DEBF0FBECDBF19A2423008F44AE0F5
:100630008E010F5D1F4F842E912CB12CA12CA50192
:1006400094010E94F507E62FB901CA01EA30F4F4DB
:10065000E05DD801EE938D01232B242B252B79F718
:1006600090E080E0109719F0CD010E94F702A1966A
:100670000FB6F894DEBF0FBECDBFDF91CF911F91B3
:100680000F91BF90AF909F908F900895E95CE1CF5C
:100690000C94F702CF92DF92EF92FF92CF93DF9309
:1006A0006C01990FEE08FF08F7FE1FC06DE287EDA1
:1006B00091E00E945401EC0166277727CB016C1969
:1006C0007D098E099F094AE00E940403C80FD91FC3
:1006D00082E191E00E94F7028C0F9D1FDF91CF9184
:1006E000FF90EF90DF90CF9008954AE0C701B601E8
:1006F0000E940403EC01ECCFEF92FF920F931F9343
:10070000CF93DF9300D000D0CDB7DEB787ED91E077
:100710000E94F00087ED91E00E94F0008E010F5FD3
:100720001F4F78018A3341F0F80181938F0187EDE3
:1007300091E00E94F000F6CFC7010E94CF07182F6A
:1007400087ED91E00E94F0008053990B8230910573
:1007500020F4682F812F0E94130287ED91E00E9400
:10076000F0008A3011F08D30C1F787ED91E00E94E2
:1007700004018A3021F487ED91E00E94F0000F908F
:100780000F900F900F90DF91CF911F910F91FF90DD
:10079000EF9008951F920F920FB60F9211242F938E
:1007A0003F934F935F936F937F938F939F93AF93F9
:1007B000BF93EF93FF9387ED91E00E943201FF9189
:1007C000EF91BF91AF919F918F917F916F915F91C9
:1007D0004F913F912F910F900FBE0F901F90189542
:1007E0001F920F920FB60F9211242F938F939F9306
:1007F000EF93FF93E091E701F091E8018081E091B0
:10080000ED01F091EE0182FD1BC090818091F0011D
:100810008F5F8F732091F101821741F0E091F00119
:10082000F0E0E952FE4F958F8093F001FF91EF9138
:100830009F918F912F910F900FBE0F901F90189541
:100840008081F4CF1F920F920FB60F9211242F9335
:100850003F938F939F93AF93BF938091C3019091E8
:10086000C401A091C501B091C6013091C20123E03D
:10087000230F2D3758F50196A11DB11D2093C201FC
:100880008093C3019093C401A093C501B093C601A6
:100890008091C7019091C801A091C901B091CA018E
:1008A0000196A11DB11D8093C7019093C801A0932B
:1008B000C901B093CA01BF91AF919F918F913F91B0
:1008C0002F910F900FBE0F901F90189526E8230FC1
:1008D0000296A11DB11DD2CFE7EDF1E01382128285
:1008E00088EE93E0A0E0B0E084839583A683B7838D
:1008F00084E091E09183808385EC90E09587848704
:1009000084EC90E09787868780EC90E0918B808BD9
:1009100081EC90E0938B828B82EC90E0958B848BC2
:1009200086EC90E0978B868B118E128E138E148E30
:10093000E4E7F2E01682178210861186128613868B
:100940001486158616861786108A118A128A138ACB
:10095000148A158A0895789484B5826084BD84B51C
:10096000816084BD85B5826085BD85B5816085BDAA
:1009700080916E00816080936E0010928100809162
:1009800081008260809381008091810081608093EA
:100990008100809180008160809380008091B1000F
:1009A00084608093B1008091B00081608093B0003A
:1009B00080917A00846080937A0080917A008260CE
:1009C00080937A0080917A00816080937A00809190
:1009D0007A00806880937A001092C1001092B6026B
:1009E0001092B7021092B8021092B90210927602D9
:1009F0001092770210927802109279020E94EB0214
:100A00006B017C014B015C0128EB820E2BE0921EF6
:100A1000A11CB11C0E94EB026C157D058E059F0583
:100A200028F086169706A806B906A0F70E94C60207
:100A30004B015C0128EEC22E23E0D22EE12CF12CDA
:100A40000E94C602681979098A099B09683E7340A9
:100A500081059105A8F331E0C31AD108E108F10836
:100A600048EE840E43E0941EA11CB11CC114D104B5
:100A7000E104F10429F70E948C000E94EB026093CC
:100A8000760270937702809378029093790285E1E1
:100A900091E00E9448030E94EB026B017C014B0134
:100AA0005C018AE0880E911CA11CB11C0E94EB0223
:100AB0006C157D058E059F0528F086169706A806FD
:100AC000B906A0F781E080938A020E94EB0260934E
:100AD000760270937702809378029093790286E28F
:100AE00091E00E9448030E948C0061E082E00E9435
:100AF000410261E083E00E94410261E084E00E94E3
:100B0000410261E085E00E94410261E089E00E94CB
:100B1000410261E08AE00E94410260E082E00E94BE
:100B2000130261E083E00E94130261E084E00E940E
:100B3000130260E085E00E94130260E086E00E94FC
:100B4000410260E087E00E94410260E08BE00E9489
:100B5000410260E08CE00E94410260E088E00E9477
:100B6000410261E08DE00E94410280E0282E80E099
:100B7000382E94EF492E55245394612C712CC1E0EA
:100B8000D0E00E94EB02672B682B692B09F4EFC0C1
:100B90000E94EB020091D3011091D4012091D50164
:100BA0003091D601601771078207930708F425C1B9
:100BB0000091D3011091D4012091D5013091D6013B
:100BC0006B017C01C01AD10AE20AF30A970186017F
:100BD0000A3F11052105310508F4D1C06093D30106
:100BE0007093D4018093D5019093D60140928202F4
:100BF0005092830260928402709285021092860263
:100C000010928702109288021092890280917A02D3
:100C100090917B02A0917C02B0917D0280937E0234
:100C200090937F02A0938002B09381020E94EB0216
:100C300060937A0270937B0280937C0290937D0292
:100C400087ED91E00E940401843611F40E947C0338
:100C50000E94EB0260937602709377028093780291
:100C6000909379020E94EB026B017C018DE291E08E
:100C70000E9448034AE061E070E080E090E00E945A
:100C8000040384E391E00E9448034AE0C701B601EF
:100C90000E94040386E391E00E94480380917A0257
:100CA00090917B02A0917C02B0917D02A7019601F8
:100CB000281B390B4A0B5B0BCA01B9014AE00E94A1
:100CC000040386E391E00E94480360917A027091E8
:100CD0007B0280917C0290917D0200917E021091B6
:100CE0007F022091800230918102601B710B820B88
:100CF000930B4AE00E94040388E391E00E944803BA
:100D00000E94EB024AE00E9404038AE391E00E9401
:100D1000F70282E191E00E94F7020E94EB024B0190
:100D20005C017C016B0135E0C30ED11CE11CF11CA0
:100D30000E94EB02681579058A059B0528F0C61606
:100D4000D706E806F906A0F787ED91E00E940401B6
:100D5000843611F40E947C030E94EB0260937A02B5
:100D600070937B0280937C0290937D0208C00E9466
:100D7000EB02623071058105910508F009CF86E02C
:100D80000E94EA017C018CE00E94EA016C0188E08B
:100D90000E94EA018C0187E00E94EA015C018BE07D
:100DA0000E94EA01E114F10489F5D093D201C093C5
:100DB000D10181E491E00E9448038091D10190919A
:100DC000D2010E944A038091D1019091D2010197F2
:100DD00009F061C064E370E08AE00E94720270E092
:100DE00060E089E00E9472028EE691E00E94480372
:100DF00081E090E00E944A0374C06093D301709335
:100E0000D4018093D5019093D601D2CE011511055E
:100E100029F0A114B10411F0009769F4D093D00126
:100E2000C093CF018BE491E00E9448038091CF01F1
:100E30009091D001C6CFC114D10469F4D093CE01F2
:100E4000C093CD0189E591E00E9448038091CD01D6
:100E50009091CE01B6CF019709F0B5CFAA94AB28F7
:100E600009F0B1CFCA94CD2809F0ADCFEA94EF28AC
:100E700009F0A9CF0130110509F0A5CFD093CC011D
:100E8000C093CB0184E691E00E9448038091CB019E
:100E90009091CC0196CF8091CF019091D001019794
:100EA00009F056C087E00E94EA017C018BE00E94B5
:100EB000EA018C0188E00E94EA010097F1F462E304
:100EC00070E08AE00E94720269E370E089E00E94AB
:100ED00072028DE791E00E94F70282E191E00E94A8
:100EE000F7022114310409F44CCE0E941E0188231C
:100EF00009F447CE0E94000044CEE114F104A1F4AD
:100F00000130110571F7019761F760E370E08AE045
:100F10000E9472026EE170E089E00E9472028EE827
:100F200091E00E944803DDCFEA94EF28D1F6012B2F
:100F3000C1F60197B1F66EE170E08AE00E9472029C
:100F400060E370E089E00E9472028BE991E0E9CFF2
:100F50008091CD019091CE01019769F470E060E03D
:100F60008AE00E94720269E370E089E00E947202E6
:100F700089EA91E03BCF8091CB019091CC01019720
:100F800009F0AFCF69E370E089E00E94720270E07F
:100F900060E08AE00E94720289EB91E027CFFC01B9
:100FA00088279927E89421912032E9F3293010F01D
:100FB0002E30C8F32B3241F02D3239F4689404C03E
:100FC0000E94ED07820F911D219120532A30C0F31A
:100FD0001EF4909581959F4F08957AE0979F902DEC
:100FE000879F802D910D11240895A1E21A2EAA1B2E
:100FF000BB1BFD010DC0AA1FBB1FEE1FFF1FA217C9
:10100000B307E407F50720F0A21BB30BE40BF50BC5
:10101000661F771F881F991F1A9469F7609570954E
:10102000809590959B01AC01BD01CF010895EE0F15
:10103000FF1F0590F491E02D0994F894FFCF000074
:1010400000005401B400E100A1011201F00004010C
:101050000D0A00564D4450565F317C315F564D4469
:1010600050560A00564D4450525F00564D4450456C
:101070005F003A323A007C005F564D445045006CA8
:101080006566744469723D200073747261696768B3
:10109000744469723D200072696768744469723DE6
:1010A00020006261636B4469723D20005475726E6A
:1010B000696E67204C6566743A2000486561646912
:1010C0006E67205374726169676874004E75646757
:1010D000696E67204C656674004E756467696E675B
:1010E000205269676874005475726E696E67207269
:1010F000696768743A200055207475726E3A200052
:107E0000112484B714BE81FFF0D085E080938100F7
:107E100082E08093C00088E18093C10086E0809377
:107E2000C20080E18093C4008EE0C9D0259A86E02C
:107E300020E33CEF91E0309385002093840096BBD3
:107E4000B09BFECF1D9AA8958150A9F7CC24DD24C4
:107E500088248394B5E0AB2EA1E19A2EF3E0BF2EE7
:107E6000A2D0813461F49FD0082FAFD0023811F036
:107E7000013811F484E001C083E08DD089C08234E0
:107E800011F484E103C0853419F485E0A6D080C0E4
:107E9000853579F488D0E82EFF2485D0082F10E0AE
:107EA000102F00270E291F29000F111F8ED06801E7
:107EB0006FC0863521F484E090D080E0DECF843638
:107EC00009F040C070D06FD0082F6DD080E0C81688
:107ED00080E7D80618F4F601B7BEE895C0E0D1E017
:107EE00062D089930C17E1F7F0E0CF16F0E7DF06D8
:107EF00018F0F601B7BEE89568D007B600FCFDCFD4
:107F0000A601A0E0B1E02C9130E011968C91119780
:107F100090E0982F8827822B932B1296FA010C0160
:107F200087BEE89511244E5F5F4FF1E0A038BF0790
:107F300051F7F601A7BEE89507B600FCFDCF97BE46
:107F4000E89526C08437B1F42ED02DD0F82E2BD052
:107F50003CD0F601EF2C8F010F5F1F4F84911BD097
:107F6000EA94F801C1F70894C11CD11CFA94CF0C13
:107F7000D11C0EC0853739F428D08EE10CD085E9AC
:107F80000AD08FE07ACF813511F488E018D01DD067
:107F900080E101D065CF982F8091C00085FFFCCF94
:107FA0009093C60008958091C00087FFFCCF809118
:107FB000C00084FD01C0A8958091C6000895E0E648
:107FC000F0E098E1908380830895EDDF803219F02E
:107FD00088E0F5DFFFCF84E1DECF1F93182FE3DFCA
:107FE0001150E9F7F2DF1F91089580E0E8DFEE27F6
:047FF000FF270994CA
:027FFE00040479
:00000001FF
