:020000040000FA
:100000000C9462000C948A000C948A000C948A0070
:100010000C948A000C948A000C948A000C948A0038
:100020000C948A000C948A000C948A000C948A0028
:100030000C948A000C948A000C948A000C948A0018
:100040000C9403040C948A000C94D1030C94AB031D
:100050000C948A000C948A000C948A000C948A00F8
:100060000C948A000C948A000000000024002700F1
:100070002A0000000000250028002B0000000000DE
:1000800023002600290004040404040404040202DA
:100090000202020203030303030301020408102007
:1000A0004080010204081020010204081020000012
:1000B0000008000201000003040700000000000027
:1000C00000004D0411241FBECFEFD8E0DEBFCDBF2E
:1000D00022E0A2E4B1E001C01D92A233B207E1F731
:1000E00011E0A0E0B1E0EEE1FEE002C005900D926B
:1000F000A234B107D9F710E0C2E6D0E004C02197DE
:10010000FE010E940707C136D107C9F70E949A0471
:100110000C940D070C940000EFE4F1E0A089B18984
:1001200082E08C93A485B5851C92A685B7858FEC5B
:100130008C93108EA489B58986E08C93A289B389AB
:100140008C9180618C93A289B3898C9188608C9307
:10015000A289B3898C9180688C930288F389E02D01
:1001600080818F7D80830895AF92BF92CF92DF927E
:10017000EF92FF920F931F93CF93DF936C017B015C
:100180008B01040F151FEB015E01AE18BF08C017ED
:10019000D10759F06991D601ED91FC910190F08160
:1001A000E02DC6010995892B79F7C501DF91CF9123
:1001B0001F910F91FF90EF90DF90CF90BF90AF9085
:1001C0000895FC01538D448D252F30E0842F90E05D
:1001D000821B930B541710F0CF9608950197089542
:1001E000FC01918D828D981761F0A28DAE0FBF2F0B
:1001F000B11D5D968C91928D9F5F9F73928F90E061
:1002000008958FEF9FEF0895FC01918D828D9817CF
:1002100031F0828DE80FF11D858D90E008958FEF0C
:100220009FEF0895FC01918D228D892F90E0805CD5
:100230009F4F821B91098F73992708958FE491E056
:100240000E94120121E0892B09F420E0822F0895F9
:1002500080E090E0892B29F00E941E0181110C940E
:1002600000000895FC01A48DA80FB92FB11DA35A59
:10027000BF4F2C91848D90E001968F739927848FC6
:10028000A689B7892C93A089B1898C9183708064E9
:100290008C93938D848D981306C00288F389E02D8A
:1002A00080818F7D80830895EF92FF920F931F933B
:1002B000CF93DF93EC0181E0888F9B8D8C8D981319
:1002C0001AC0E889F989808185FF15C09FB7F89425
:1002D000EE89FF896083E889F98980818370806471
:1002E00080839FBF81E090E0DF91CF911F910F91BC
:1002F000FF90EF900895F62E0B8D10E00F5F1F4FCB
:100300000F731127E02E8C8D8E110CC00FB607FCD9
:10031000FACFE889F989808185FFF5CFCE010E9467
:100320003201F1CFEB8DEC0FFD2FF11DE35AFF4FA2
:10033000F0829FB7F8940B8FEA89FB8980818062F5
:10034000CFCFCF93DF93EC01888D8823B9F0AA89B2
:10035000BB89E889F9898C9185FD03C0808186FD80
:100360000DC00FB607FCF7CF8C9185FFF2CF8081CF
:1003700085FFEDCFCE010E943201E9CFDF91CF9111
:100380000895833081F028F4813099F08230A9F00B
:1003900008958730A9F08830C9F08430B1F4809195
:1003A00080008F7D03C0809180008F7780938000D4
:1003B000089584B58F7784BD089584B58F7DFBCF74
:1003C0008091B0008F778093B00008958091B00045
:1003D0008F7DF9CFCF93DF93282F30E0F901E255DD
:1003E000FF4F8491F901E656FF4FD491F901EA5786
:1003F000FF4FC491CC23A1F081110E94C101EC2FC9
:10040000F0E0EE0FFF1FE458FF4FA591B491EC917F
:10041000ED2381E090E009F480E0DF91CF91089531
:1004200080E090E0FACF1F93CF93DF93282F30E046
:10043000F901E255FF4F8491F901E656FF4FD4913F
:10044000F901EA57FF4FC491CC23A9F0162F81116F
:100450000E94C101EC2FF0E0EE0FFF1FEE58FF4F9E
:10046000A591B4918FB7F894EC91111108C0D09573
:10047000DE23DC938FBFDF91CF911F910895DE2B98
:10048000F8CFCF93DF9390E0FC01E656FF4F249125
:100490008A579F4FFC0184918823D1F090E0880F08
:1004A000991FFC01E859FF4FA591B491FC01EE584A
:1004B000FF4FC591D49161110EC09FB7F8948C91F4
:1004C000E22FE0958E238C932881E223E8839FBF5F
:1004D000DF91CF9108958FB7F894EC91E22BEC93D4
:1004E0008FBFF6CF1F93CF93DF93182FEB0161E0FF
:1004F0000E944102209739F460E0812FDF91CF9173
:100500001F910C941302E12FF0E0E255FF4FE491AC
:10051000E33011F148F4E130B9F0E23069F784B525
:10052000806284BDC8BD14C0E73001F1E83031F10C
:10053000E43011F780918000806280938000D09336
:100540008B00C0938A0004C084B5806884BDC7BD99
:10055000DF91CF911F9108958091800080688093F2
:100560008000D0938900C0938800F2CF8091B000C2
:1005700080688093B000C093B300EACF8091B00050
:1005800080628093B000C093B400E2CF3FB7F8948C
:100590008091470190914801A0914901B0914A0191
:1005A00026B5A89B05C02F3F19F00196A11DB11DCE
:1005B0003FBFBA2FA92F982F8827BC01CD01620F0A
:1005C000711D811D911D42E0660F771F881F991FC5
:1005D0004A95D1F708952FB7F8946091430170912F
:1005E000440180914501909146012FBF0895FC017F
:1005F00001900020E9F73197AF01481B590BBC016E
:100600008FE491E00C94B4008F929F92AF92BF92CE
:100610000F931F93CF93DF93CDB7DEB7A1970FB69C
:10062000F894DEBF0FBECDBF19A2423008F44AE0F5
:100630008E010F5D1F4F842E912CB12CA12CA50192
:1006400094010E94E506E62FB901CA01EA30F4F4EC
:10065000E05DD801EE938D01232B242B252B79F718
:1006600090E080E0109719F0CD010E94F702A1966A
:100670000FB6F894DEBF0FBECDBFDF91CF911F91B3
:100680000F91BF90AF909F908F900895E95CE1CF5C
:100690000C94F702CF93DF934AE061E070E080E0D2
:1006A00090E00E940403EC0182E191E00E94F702D5
:1006B0008C0F9D1FDF91CF910895EF92FF920F93C2
:1006C0001F93CF93DF9300D000D0CDB7DEB78FE478
:1006D00091E00E94F0008FE491E00E94F0008E0112
:1006E0000F5F1F4F78018A3341F0F80181938F012A
:1006F0008FE491E00E94F000F6CFC7010E94BF0690
:10070000182F8FE491E00E94F0008053990B823003
:10071000910520F4682F812F0E9413028FE491E04D
:100720000E94F0008A3011F08D30C1F78FE491E023
:100730000E9404018A3021F48FE491E00E94F000CD
:100740000F900F900F900F90DF91CF911F910F910D
:10075000FF90EF9008951F920F920FB60F92112401
:100760002F933F934F935F936F937F938F939F93B9
:10077000AF93BF93EF93FF938FE491E00E94320118
:10078000FF91EF91BF91AF919F918F917F916F9169
:100790005F914F913F912F910F900FBE0F901F903F
:1007A00018951F920F920FB60F9211242F938F93CB
:1007B0009F93EF93FF93E0915F01F091600180813F
:1007C000E0916501F091660182FD1BC090818091EE
:1007D00068018F5F8F7320916901821741F0E0916A
:1007E0006801F0E0E15BFE4F958F80936801FF9117
:1007F000EF919F918F912F910F900FBE0F901F90AF
:1008000018958081F4CF1F920F920FB60F9211248A
:100810002F933F938F939F93AF93BF938091430107
:1008200090914401A0914501B0914601309142015F
:1008300023E0230F2D3758F50196A11DB11D2093FC
:1008400042018093430190934401A0934501B093EA
:1008500046018091470190914801A0914901B091D2
:100860004A010196A11DB11D809347019093480153
:10087000A0934901B0934A01BF91AF919F918F918D
:100880003F912F910F900FBE0F901F90189526E863
:10089000230F0296A11DB11DD2CFEFE4F1E0138228
:1008A000128288EE93E0A0E0B0E084839583A68373
:1008B000B78384E091E09183808385EC90E0958715
:1008C000848784EC90E09787868780EC90E0918B1A
:1008D000808B81EC90E0938B828B82EC90E0958B07
:1008E000848B86EC90E0978B868B118E128E138E04
:1008F000148EECEEF1E016821782108611861286B5
:1009000013861486158616861786108A118A128A0F
:10091000138A148A158A86E00E94EA018CE00E94FC
:10092000EA0188E00E94EA0187E00E94EA018BE088
:100930000C94EA01789484B5826084BD84B58160AA
:1009400084BD85B5826085BD85B5816085BD80919A
:100950006E00816080936E00109281008091810012
:10096000826080938100809181008160809381000A
:10097000809180008160809380008091B1008460CC
:100980008093B1008091B00081608093B00080912D
:100990007A00846080937A0080917A0082608093EC
:1009A0007A0080917A00816080937A0080917A0049
:1009B000806880937A001092C10010922E021092EB
:1009C0002F0210923002109231021092EE0110921A
:1009D000EF011092F0011092F1010E94EB026B0105
:1009E0007C014B015C0128EB820E2BE0921EA11CC6
:1009F000B11C0E94EB026C157D058E059F0528F049
:100A000086169706A806B906A0F70E94C6024B01F3
:100A10005C0198EEC92E93E0D92EE12CF12C0E94B6
:100A2000C602681979098A099B09683E73408105E5
:100A30009105A8F331E0C31AD108E108F10848EEA6
:100A4000840E43E0941EA11CB11CC114D104E10426
:100A5000F10429F70E948C000E94EB026093EE01E2
:100A60007093EF018093F0019093F10185E191E0A3
:100A70000E9448030E94EB026B017C014B015C0168
:100A80008AE0880E911CA11CB11C0E94EB026C151F
:100A90007D058E059F0528F086169706A806B906DF
:100AA000A0F781E0809302020E94EB026093EE01C6
:100AB0007093EF018093F0019093F10186E291E051
:100AC0000E9448030E948C0061E082E00E94410283
:100AD00061E083E00E94410261E084E00E94410203
:100AE00061E085E00E94410261E089E00E944102EC
:100AF00061E08AE00E94410260E082E00E9413020D
:100B000061E083E00E94130261E084E00E9413022E
:100B100060E085E00E94130260E086E00E944102EE
:100B200060E087E00E94410260E08BE00E944102A9
:100B300060E08CE00E94410260E088E00E94410297
:100B400061E08DE00E944102C0E0D0E084EF882E99
:100B500099249394A12CB12C0E94EB02672B682B53
:100B6000692B09F4F0C00E94EB02C0904B01D090B9
:100B70004C01E0904D01F0904E016C157D058E0505
:100B80009F0508F4F3C0C0904B01D0904C01E09059
:100B90004D01F0904E019B01AC012C193D094E090D
:100BA0005F0969017A013AEFC316D104E104F10447
:100BB00008F4D1C060934B0170934C0180934D01B8
:100BC00090934E018092FA019092FB01A092FC0159
:100BD000B092FD011092FE011092FF0110920002EE
:100BE000109201028091F2019091F301A091F40121
:100BF000B091F5018093F6019093F701A093F8016D
:100C0000B093F9010E94EB026093F2017093F3013B
:100C10008093F4019093F5018FE491E00E94040128
:100C2000843611F40E945D030E94EB026093EE0192
:100C30007093EF018093F0019093F1010E94EB0219
:100C40006B017C018DE291E00E9448034AE061E083
:100C500070E080E090E00E94040384E391E00E9451
:100C600048034AE0C701B6010E94040386E391E00D
:100C70000E9448038091F2019091F301A091F40148
:100C8000B091F501A7019601281B390B4A0B5B0BAC
:100C9000CA01B9014AE00E94040386E391E00E9480
:100CA00048036091F2017091F3018091F4019091F9
:100CB000F501C090F601D090F701E090F801F090B6
:100CC000F9016C197D098E099F094AE00E9404030D
:100CD00088E391E00E9448030E94EB024AE00E94F0
:100CE00004038AE391E00E94F70282E191E00E940E
:100CF000F7020E94EB022B013C017C016B0135E005
:100D0000C30ED11CE11CF11C0E94EB026415750599
:100D10008605970528F0C616D706E806F906A0F757
:100D20008FE491E00E940401843611F40E945D0377
:100D30000E94EB026093F2017093F3018093F4013F
:100D40009093F50108C00E94EB02623071058105A5
:100D5000910508F008CF209709F4FECE0E941E01ED
:100D6000882309F4F9CE0E940000F6CE60934B016F
:100D700070934C0180934D0190934E0104CFFC0180
:100D800088279927E89421912032E9F3293010F03F
:100D90002E30C8F32B3241F02D3239F4689404C060
:100DA0000E94DD06820F911D219120532A30C0F34D
:100DB0001EF4909581959F4F08957AE0979F902D0E
:100DC000879F802D910D11240895A1E21A2EAA1B50
:100DD000BB1BFD010DC0AA1FBB1FEE1FFF1FA217EB
:100DE000B307E407F50720F0A21BB30BE40BF50BE8
:100DF000661F771F881F991F1A9469F76095709571
:100E0000809590959B01AC01BD01CF010895EE0F37
:100E1000FF1F0590F491E02D0994F894FFCF000096
:100E200000005401B400E100A1011201F00004012E
:100E30000D0A00564D4450565F317C315F564D448B
:100E400050560A00564D4450525F00564D4450458E
:100E50005F003A323A007C005F564D445045000036
:107E0000112484B714BE81FFF0D085E080938100F7
:107E100082E08093C00088E18093C10086E0809377
:107E2000C20080E18093C4008EE0C9D0259A86E02C
:107E300020E33CEF91E0309385002093840096BBD3
:107E4000B09BFECF1D9AA8958150A9F7CC24DD24C4
:107E500088248394B5E0AB2EA1E19A2EF3E0BF2EE7
:107E6000A2D0813461F49FD0082FAFD0023811F036
:107E7000013811F484E001C083E08DD089C08234E0
:107E800011F484E103C0853419F485E0A6D080C0E4
:107E9000853579F488D0E82EFF2485D0082F10E0AE
:107EA000102F00270E291F29000F111F8ED06801E7
:107EB0006FC0863521F484E090D080E0DECF843638
:107EC00009F040C070D06FD0082F6DD080E0C81688
:107ED00080E7D80618F4F601B7BEE895C0E0D1E017
:107EE00062D089930C17E1F7F0E0CF16F0E7DF06D8
:107EF00018F0F601B7BEE89568D007B600FCFDCFD4
:107F0000A601A0E0B1E02C9130E011968C91119780
:107F100090E0982F8827822B932B1296FA010C0160
:107F200087BEE89511244E5F5F4FF1E0A038BF0790
:107F300051F7F601A7BEE89507B600FCFDCF97BE46
:107F4000E89526C08437B1F42ED02DD0F82E2BD052
:107F50003CD0F601EF2C8F010F5F1F4F84911BD097
:107F6000EA94F801C1F70894C11CD11CFA94CF0C13
:107F7000D11C0EC0853739F428D08EE10CD085E9AC
:107F80000AD08FE07ACF813511F488E018D01DD067
:107F900080E101D065CF982F8091C00085FFFCCF94
:107FA0009093C60008958091C00087FFFCCF809118
:107FB000C00084FD01C0A8958091C6000895E0E648
:107FC000F0E098E1908380830895EDDF803219F02E
:107FD00088E0F5DFFFCF84E1DECF1F93182FE3DFCA
:107FE0001150E9F7F2DF1F91089580E0E8DFEE27F6
:047FF000FF270994CA
:027FFE00040479
:00000001FF
