:020000040000FA
:100000000C9462000C948A000C948A000C948A0070
:100010000C948A000C948A000C948A000C948A0038
:100020000C948A000C948A000C948A000C948A0028
:100030000C948A000C948A000C948A000C948A0018
:100040000C94BE040C948A000C948C040C946604EA
:100050000C948A000C948A000C948A000C948A00F8
:100060000C948A000C948A000000000024002700F1
:100070002A0000000000250028002B0000000000DE
:1000800023002600290004040404040404040202DA
:100090000202020203030303030301020408102007
:1000A0004080010204081020010204081020000012
:1000B0000008000201000003040700000000000027
:1000C0000000080511241FBECFEFD8E0DEBFCDBF72
:1000D00022E0A2E4B1E001C01D92AC34B207E1F726
:1000E00011E0A0E0B1E0E2E9F1E102C005900D927B
:1000F000A234B107D9F710E0C2E6D0E004C02197DE
:10010000FE010E94C108C136D107C9F70E94470508
:100110000C94C7080C940000E9E6F1E0A089B189CD
:1001200082E08C93A485B5851C92A685B7858FEC5B
:100130008C93108EA489B58986E08C93A289B389AB
:100140008C9180618C93A289B3898C9188608C9307
:10015000A289B3898C9180688C930288F389E02D01
:1001600080818F7D80830895AF92BF92CF92DF927E
:10017000EF92FF920F931F93CF93DF936C017B015C
:100180008B01040F151FEB015E01AE18BF08C017ED
:10019000D10759F06991D601ED91FC910190F08160
:1001A000E02DC6010995892B79F7C501DF91CF9123
:1001B0001F910F91FF90EF90DF90CF90BF90AF9085
:1001C0000895FC01538D448D252F30E0842F90E05D
:1001D000821B930B541710F0CF9608950197089542
:1001E000FC01918D828D981761F0A28DAE0FBF2F0B
:1001F000B11D5D968C91928D9F5F9F73928F90E061
:1002000008958FEF9FEF0895FC01918D828D9817CF
:1002100031F0828DE80FF11D858D90E008958FEF0C
:100220009FEF0895FC01918D228D892F90E0805CD5
:100230009F4F821B91098F739927089589E691E05A
:100240000E94120121E0892B09F420E0822F0895F9
:1002500080E090E0892B29F00E941E0181110C940E
:1002600000000895FC01A48DA80FB92FB11DA35A59
:10027000BF4F2C91848D90E001968F739927848FC6
:10028000A689B7892C93A089B1898C9183708064E9
:100290008C93938D848D981306C00288F389E02D8A
:1002A00080818F7D80830895EF92FF920F931F933B
:1002B000CF93DF93EC0181E0888F9B8D8C8D981319
:1002C0001AC0E889F989808185FF15C09FB7F89425
:1002D000EE89FF896083E889F98980818370806471
:1002E00080839FBF81E090E0DF91CF911F910F91BC
:1002F000FF90EF900895F62E0B8D10E00F5F1F4FCB
:100300000F731127E02E8C8D8E110CC00FB607FCD9
:10031000FACFE889F989808185FFF5CFCE010E9467
:100320003201F1CFEB8DEC0FFD2FF11DE35AFF4FA2
:10033000F0829FB7F8940B8FEA89FB8980818062F5
:10034000CFCFCF93DF93EC01888D8823B9F0AA89B2
:10035000BB89E889F9898C9185FD03C0808186FD80
:100360000DC00FB607FCF7CF8C9185FFF2CF8081CF
:1003700085FFEDCFCE010E943201E9CFDF91CF9111
:100380000895833081F028F4813099F08230A9F00B
:1003900008958730A9F08830C9F08430B1F4809195
:1003A00080008F7D03C0809180008F7780938000D4
:1003B000089584B58F7784BD089584B58F7DFBCF74
:1003C0008091B0008F778093B00008958091B00045
:1003D0008F7DF9CFCF93DF93282F30E0F901E255DD
:1003E000FF4F8491F901E656FF4FD491F901EA5786
:1003F000FF4FC491CC23A1F081110E94C101EC2FC9
:10040000F0E0EE0FFF1FE458FF4FA591B491EC917F
:10041000ED2381E090E009F480E0DF91CF91089531
:1004200080E090E0FACF1F93CF93DF93282F30E046
:10043000F901E255FF4F8491F901E656FF4FD4913F
:10044000F901EA57FF4FC491CC23A9F0162F81116F
:100450000E94C101EC2FF0E0EE0FFF1FEE58FF4F9E
:10046000A591B4918FB7F894EC91111108C0D09573
:10047000DE23DC938FBFDF91CF911F910895DE2B98
:10048000F8CFCF93DF9390E0FC01E656FF4F249125
:100490008A579F4FFC0184918823D1F090E0880F08
:1004A000991FFC01E859FF4FA591B491FC01EE584A
:1004B000FF4FC591D49161110EC09FB7F8948C91F4
:1004C000E22FE0958E238C932881E223E8839FBF5F
:1004D000DF91CF9108958FB7F894EC91E22BEC93D4
:1004E0008FBFF6CF1F93CF93DF93182FEB0161E0FF
:1004F0000E944102209739F460E0812FDF91CF9173
:100500001F910C941302E12FF0E0E255FF4FE491AC
:10051000E33011F148F4E130B9F0E23069F784B525
:10052000806284BDC8BD14C0E73001F1E83031F10C
:10053000E43011F780918000806280938000D09336
:100540008B00C0938A0004C084B5806884BDC7BD99
:10055000DF91CF911F9108958091800080688093F2
:100560008000D0938900C0938800F2CF8091B000C2
:1005700080688093B000C093B300EACF8091B00050
:1005800080628093B000C093B400E2CF3FB7F8948C
:100590008091470190914801A0914901B0914A0191
:1005A00026B5A89B05C02F3F19F00196A11DB11DCE
:1005B0003FBFBA2FA92F982F8827BC01CD01620F0A
:1005C000711D811D911D42E0660F771F881F991FC5
:1005D0004A95D1F708952FB7F8946091430170912F
:1005E000440180914501909146012FBF0895CF921B
:1005F000DF92EF92FF920F931F93CF93DF9386E0EA
:100600000E94EA017C018CE00E94EA01EC0188E092
:100610000E94EA018C0187E00E94EA016C018BE0F4
:100620000E94EA01E114F10421F521E030E0309369
:100630006401209363011092600110925F01109297
:1006400062011092610110925E0110925D0130937F
:100650005401209353010115110509F047C020975B
:1006600009F044C021E030E030935401209353015D
:100670003DC00115110529F0C114D10411F00097F6
:1006800009F521E030E0309362012093610110927E
:100690006401109263011092600110925F01109248
:1006A0005E0110925D010115110501F521E0E216D0
:1006B000F104A9F6C130D10591F6109254011092BF
:1006C000530114C0209761F521E030E030936001C0
:1006D00020935F01109264011092630110926201F5
:1006E0001092610110925E0110925D01019759F420
:1006F000CA94CD2841F4219731F4EA94EF2819F4F3
:100700000130110561F1609153018DE0DF91CF91CE
:100710001F910F91FF90EF90DF90CF900C941302F8
:10072000019789F7CA94CD2871F7219761F7EA9468
:10073000EF2849F70130110531F781E090E09093FF
:100740005E0180935D01109264011092630110922A
:10075000600110925F01109262011092610181E0CC
:1007600090E09093540180935301CDCFFC01019010
:100770000020E9F73197AF01481B590BBC0189E60E
:1007800091E00C94B400CF93DF93682F89E691E059
:100790000E945401EC0182E191E00E94B6038C0FAB
:1007A0009D1FDF91CF9108958F929F92AF92BF923C
:1007B0000F931F93CF93DF93CDB7DEB7A1970FB6FB
:1007C000F894DEBF0FBECDBF19A2423008F44AE054
:1007D0008E010F5D1F4F842E912CB12CA12CA501F1
:1007E00094010E949F08E62FB901CA01EA30F4F48F
:1007F000E05DD801EE938D01232B242B252B79F777
:1008000090E080E0109719F0CD010E94B603A19608
:100810000FB6F894DEBF0FBECDBFDF91CF911F9111
:100820000F91BF90AF909F908F900895E95CE1CFBA
:10083000EF92FF920F931F93CF93DF9300D000D0DE
:10084000CDB7DEB789E691E00E94F00089E691E03D
:100850000E94F0008E010F5F1F4F78018A3341F034
:10086000F80181938F0189E691E00E94F000F6CFB4
:10087000C7010E947908182F89E691E00E94F000D4
:100880008053990B8230910520F4682F812F0E94AC
:10089000130289E691E00E94F0008A3011F08D3059
:1008A000C1F789E691E00E9404018A3021F489E6CB
:1008B00091E00E94F0000F900F900F900F90DF9149
:1008C000CF911F910F91FF90EF9008951F920F927B
:1008D0000FB60F9211242F933F934F935F936F9313
:1008E0007F938F939F93AF93BF93EF93FF9389E68B
:1008F00091E00E943201FF91EF91BF91AF919F91E2
:100900008F917F916F915F914F913F912F910F90B8
:100910000FBE0F901F9018951F920F920FB60F9257
:1009200011242F938F939F93EF93FF93E09179017D
:10093000F0917A018081E0917F01F091800182FD48
:100940001BC09081809182018F5F8F732091830102
:10095000821741F0E0918201F0E0E759FE4F958F58
:1009600080938201FF91EF919F918F912F910F9032
:100970000FBE0F901F9018958081F4CF1F920F9299
:100980000FB60F9211242F933F938F939F93AF93A2
:10099000BF938091430190914401A0914501B09192
:1009A00046013091420123E0230F2D3758F501967F
:1009B000A11DB11D209342018093430190934401F6
:1009C000A0934501B0934601809147019091480161
:1009D000A0914901B0914A010196A11DB11D8093DA
:1009E000470190934801A0934901B0934A01BF91F8
:1009F000AF919F918F913F912F910F900FBE0F90CC
:100A00001F90189526E8230F0296A11DB11DD2CF85
:100A1000E9E6F1E01382128288EE93E0A0E0B0E014
:100A200084839583A683B78384E091E09183808358
:100A300085EC90E09587848784EC90E097878687A3
:100A400080EC90E0918B808B81EC90E0938B828B9B
:100A500082EC90E0958B848B86EC90E0978B868B74
:100A6000118E128E138E148EE6E0F2E0168217823B
:100A700010861186128613861486158616861786AA
:100A8000108A118A128A138A148A158A0895789412
:100A900084B5826084BD84B5816084BD85B5826083
:100AA00085BD85B5816085BD80916E008160809334
:100AB0006E0010928100809181008260809381009D
:100AC00080918100816080938100809180008160AD
:100AD000809380008091B10084608093B100809108
:100AE000B00081608093B00080917A008460809330
:100AF0007A0080917A00826080937A0080917A00F7
:100B0000816080937A0080917A00806880937A0077
:100B10001092C100109248021092490210924A02AB
:100B200010924B02109208021092090210920A02CF
:100B300010920B020E94EB026B017C014B015C01E5
:100B400028EB820E2BE0921EA11CB11C0E94EB022E
:100B50006C157D058E059F0528F086169706A8065C
:100B6000B906A0F70E94C6024B015C0128EEC22E16
:100B700023E0D22EE12CF12C0E94C60268197909DB
:100B80008A099B09683E734081059105A8F331E00D
:100B9000C31AD108E108F10848EE840E43E0941E20
:100BA000A11CB11CC114D104E104F10429F70E9475
:100BB0008C000E94EB0260930802709309028093FC
:100BC0000A0290930B0285E191E00E94B6030E9415
:100BD000EB026B017C014B015C018AE0880E911CE9
:100BE000A11CB11C0E94EB026C157D058E059F05B2
:100BF00028F086169706A806B906A0F781E080932C
:100C00001C020E94EB026093080270930902809319
:100C10000A0290930B0286E291E00E94B6030E94C2
:100C20008C0061E082E00E94410261E083E00E946A
:100C3000410261E084E00E94410261E085E00E949F
:100C4000410261E089E00E94410261E08AE00E9485
:100C5000410260E082E00E94130261E083E00E94B2
:100C6000130261E084E00E94130260E085E00E94CC
:100C7000130260E086E00E94410260E087E00E948B
:100C8000410260E08BE00E94410260E08CE00E9443
:100C9000410260E088E00E94410261E08DE00E9434
:100CA000410280E0282E80E0382E94EF892E99248E
:100CB0009394A12CB12C0E94EB02672B682B692B1B
:100CC00009F4EFC00E94EB020091650110916601EA
:100CD00020916701309168016017710782079307BF
:100CE00008F436C1009165011091660120916701F9
:100CF000309168016B017C01C01AD10AE20AF30A43
:100D0000970186010A3F11052105310508F4D1C07C
:100D10006093650170936601809367019093680109
:100D20008092140290921502A0921602B0921702BD
:100D3000109218021092190210921A0210921B02BD
:100D400080910C0290910D02A0910E02B0910F02C1
:100D50008093100290931102A0931202B093130299
:100D60000E94EB0260930C0270930D0280930E02BE
:100D700090930F0289E691E00E940401843611F4F9
:100D80000E9418040E94EB0260930802709309020B
:100D900080930A0290930B020E94EB022B013C010C
:100DA0008DE291E00E94B6034AE061E070E080E0ED
:100DB00090E00E94D40384E391E00E94B6034AE0ED
:100DC000C301B2010E94D40386E391E00E94B603FE
:100DD00080910C0290910D02A0910E02B0910F0231
:100DE000A3019201281B390B4A0B5B0BCA01B90105
:100DF0004AE00E94D40386E391E00E94B60360912A
:100E00000C0270910D0280910E0290910F020091E0
:100E10001002109111022091120230911302601BF6
:100E2000710B820B930B4AE00E94D40388E391E09C
:100E30000E94B6030E94EB024AE00E94D4038AE3B8
:100E400091E00E94B60382E191E00E94B6030E9405
:100E5000EB026B017C012B013C0135E0430E511C80
:100E6000611C711C0E94EB026C157D058E059F05AF
:100E700028F04616570668067906A0F789E691E03D
:100E80000E940401843611F40E9418040E94EB02AF
:100E900060930C0270930D0280930E0290930F02E8
:100EA00008C00E94EB02623071058105910508F0CF
:100EB00009CF0E94F702C0916301D0916401C13053
:100EC000D10509F04EC064E370E08AE00E9472022E
:100ED00070E060E089E00E947202D0935C01C093F0
:100EE0005B01D0935A01C09359010E94F70280918F
:100EF0005B0190915C01019709F4B7C080915901A1
:100F000090915A01019709F0B0C08CE60E94C3038A
:100F100010925A011092590110925C0110925B01DB
:100F2000109252011092510110924E0110924D01F7
:100F300010925801109257012114310409F4BBCECC
:100F40000E941E01882309F4B6CE0E940000B3CE91
:100F500060936501709366018093670190936801C7
:100F6000C1CEC0916101D0916201C130D10509F0BB
:100F700047C087E00E94EA017C018BE00E94EA0101
:100F80008C0188E00E94EA01009799F462E370E026
:100F90008AE00E94720269E370E089E00E947202B6
:100FA000D0935801C0935701D0935601C093550177
:100FB0009CCFE114F10491F40130110509F095CFB3
:100FC000019709F092CF60E370E08AE00E9472021C
:100FD0006EE170E089E00E94720287CFEA94EF2808
:100FE00009F083CF012B09F080CF019709F07DCF65
:100FF0006EE170E08AE00E94720260E370E0EACF86
:10100000C0915F01D0916001C130D10599F470E0C9
:1010100060E08AE00E94720269E370E089E00E9469
:101020007202D0935201C0935101D0935001C093EA
:101030004F015BCFC0915D01D0915E01C130D10500
:1010400009F053CF69E370E089E00E94720270E01A
:1010500060E08AE00E947202D0934E01C0934D017D
:10106000D0934C01C0934B0140CF80915701909198
:1010700058010197A1F08091550190915601019777
:1010800071F48091530190915401019741F483E7E9
:101090000E94C30310925601109255013DCF8091DA
:1010A000510190915201019771F080914F019091FF
:1010B0005001019741F482E70E94C303109250014E
:1010C00010924F0129CF80914D0190914E010197CF
:1010D00009F422CF80914B0190914C01019709F0C6
:1010E0001BCF82E60E94C30310924C0110924B0169
:1010F00013CFFC0188279927E89421912032E9F346
:10110000293010F02E30C8F32B3241F02D3239F453
:10111000689404C00E949708820F911D219120536A
:101120002A30C0F31EF4909581959F4F08957AE080
:10113000979F902D879F802D910D11240895A1E2F6
:101140001A2EAA1BBB1BFD010DC0AA1FBB1FEE1F41
:10115000FF1FA217B307E407F50720F0A21BB30B8C
:10116000E40BF50B661F771F881F991F1A9469F708
:1011700060957095809590959B01AC01BD01CF0164
:101180000895EE0FFF1F0590F491E02D0994F89457
:10119000FFCF000000005401B400E100A1011201E2
:1011A000F00004010D0A00564D4450565F317C3169
:1011B0005F564D4450560A00564D4450525F0056FB
:1011C0004D4450455F003A323A007C005F564D4432
:0411D0005045000086
:107E0000112484B714BE81FFF0D085E080938100F7
:107E100082E08093C00088E18093C10086E0809377
:107E2000C20080E18093C4008EE0C9D0259A86E02C
:107E300020E33CEF91E0309385002093840096BBD3
:107E4000B09BFECF1D9AA8958150A9F7CC24DD24C4
:107E500088248394B5E0AB2EA1E19A2EF3E0BF2EE7
:107E6000A2D0813461F49FD0082FAFD0023811F036
:107E7000013811F484E001C083E08DD089C08234E0
:107E800011F484E103C0853419F485E0A6D080C0E4
:107E9000853579F488D0E82EFF2485D0082F10E0AE
:107EA000102F00270E291F29000F111F8ED06801E7
:107EB0006FC0863521F484E090D080E0DECF843638
:107EC00009F040C070D06FD0082F6DD080E0C81688
:107ED00080E7D80618F4F601B7BEE895C0E0D1E017
:107EE00062D089930C17E1F7F0E0CF16F0E7DF06D8
:107EF00018F0F601B7BEE89568D007B600FCFDCFD4
:107F0000A601A0E0B1E02C9130E011968C91119780
:107F100090E0982F8827822B932B1296FA010C0160
:107F200087BEE89511244E5F5F4FF1E0A038BF0790
:107F300051F7F601A7BEE89507B600FCFDCF97BE46
:107F4000E89526C08437B1F42ED02DD0F82E2BD052
:107F50003CD0F601EF2C8F010F5F1F4F84911BD097
:107F6000EA94F801C1F70894C11CD11CFA94CF0C13
:107F7000D11C0EC0853739F428D08EE10CD085E9AC
:107F80000AD08FE07ACF813511F488E018D01DD067
:107F900080E101D065CF982F8091C00085FFFCCF94
:107FA0009093C60008958091C00087FFFCCF809118
:107FB000C00084FD01C0A8958091C6000895E0E648
:107FC000F0E098E1908380830895EDDF803219F02E
:107FD00088E0F5DFFFCF84E1DECF1F93182FE3DFCA
:107FE0001150E9F7F2DF1F91089580E0E8DFEE27F6
:047FF000FF270994CA
:027FFE00040479
:00000001FF
